{
  "contractName": "ERC721Metadata",
  "abi": [
    {
      "constant": true,
      "inputs": [
        {
          "name": "interfaceId",
          "type": "bytes4"
        }
      ],
      "name": "supportsInterface",
      "outputs": [
        {
          "name": "",
          "type": "bool"
        }
      ],
      "payable": false,
      "stateMutability": "view",
      "type": "function"
    },
    {
      "constant": true,
      "inputs": [
        {
          "name": "tokenId",
          "type": "uint256"
        }
      ],
      "name": "getApproved",
      "outputs": [
        {
          "name": "",
          "type": "address"
        }
      ],
      "payable": false,
      "stateMutability": "view",
      "type": "function"
    },
    {
      "constant": false,
      "inputs": [
        {
          "name": "to",
          "type": "address"
        },
        {
          "name": "tokenId",
          "type": "uint256"
        }
      ],
      "name": "approve",
      "outputs": [],
      "payable": false,
      "stateMutability": "nonpayable",
      "type": "function"
    },
    {
      "constant": true,
      "inputs": [
        {
          "name": "operator",
          "type": "address"
        },
        {
          "name": "from",
          "type": "address"
        },
        {
          "name": "tokenId",
          "type": "uint256"
        },
        {
          "name": "data",
          "type": "bytes"
        }
      ],
      "name": "totalSupply",
      "outputs": [
        {
          "name": "",
          "type": "uint256"
        }
      ],
      "payable": false,
      "stateMutability": "view",
      "type": "function"
    },
    {
      "constant": false,
      "inputs": [
        {
          "name": "from",
          "type": "address"
        },
        {
          "name": "to",
          "type": "address"
        },
        {
          "name": "tokenId",
          "type": "uint256"
        }
      ],
      "name": "transferFrom",
      "outputs": [
        {
          "name": "",
          "type": "uint256"
        }
      ],
      "payable": false,
      "stateMutability": "nonpayable",
      "type": "function"
    },
    {
      "constant": true,
      "inputs": [
        {
          "name": "_myid",
          "type": "bytes32"
        },
        {
          "name": "_result",
          "type": "string"
        },
        {
          "name": "tokenId",
          "type": "uint256"
        }
      ],
      "name": "__callback",
      "outputs": [],
      "payable": false,
      "stateMutability": "pure",
      "type": "function"
    },
    {
      "constant": true,
      "inputs": [
        {
          "name": "owner",
          "type": "address"
        },
        {
          "name": "index",
          "type": "uint256"
        }
      ],
      "name": "tokenOfOwnerByIndex",
      "outputs": [
        {
          "name": "",
          "type": "uint256"
        }
      ],
      "payable": false,
      "stateMutability": "view",
      "type": "function"
    },
    {
      "constant": true,
      "inputs": [
        {
          "name": "_myid",
          "type": "bytes32"
        },
        {
          "name": "_result",
          "type": "string"
        },
        {
          "name": "_proof",
          "type": "bytes"
        }
      ],
      "name": "__callback",
      "outputs": [
        {
          "name": "",
          "type": "uint256"
        }
      ],
      "payable": false,
      "stateMutability": "pure",
      "type": "function"
    },
    {
      "constant": false,
      "inputs": [
        {
          "name": "_myid",
          "type": "bytes32"
        },
        {
          "name": "_result",
          "type": "string"
        },
        {
          "name": "_proof",
          "type": "bytes"
        }
      ],
      "name": "unpause",
      "outputs": [],
      "payable": false,
      "stateMutability": "nonpayable",
      "type": "function"
    },
    {
      "constant": false,
      "inputs": [
        {
          "name": "from",
          "type": "address"
        },
        {
          "name": "to",
          "type": "address"
        },
        {
          "name": "tokenId",
          "type": "uint256"
        }
      ],
      "name": "safeTransferFrom",
      "outputs": [
        {
          "name": "",
          "type": "uint256"
        }
      ],
      "payable": false,
      "stateMutability": "nonpayable",
      "type": "function"
    },
    {
      "constant": true,
      "inputs": [
        {
          "name": "index",
          "type": "uint256"
        }
      ],
      "name": "tokenByIndex",
      "outputs": [
        {
          "name": "",
          "type": "uint256"
        }
      ],
      "payable": false,
      "stateMutability": "view",
      "type": "function"
    },
    {
      "constant": true,
      "inputs": [
        {
          "name": "tokenId",
          "type": "uint256"
        }
      ],
      "name": "ownerOf",
      "outputs": [
        {
          "name": "",
          "type": "address"
        }
      ],
      "payable": false,
      "stateMutability": "view",
      "type": "function"
    },
    {
      "constant": true,
      "inputs": [
        {
          "name": "owner",
          "type": "address"
        }
      ],
      "name": "balanceOf",
      "outputs": [
        {
          "name": "",
          "type": "uint256"
        }
      ],
      "payable": false,
      "stateMutability": "view",
      "type": "function"
    },
    {
      "constant": false,
      "inputs": [],
      "name": "pause",
      "outputs": [
        {
          "name": "",
          "type": "bool"
        }
      ],
      "payable": false,
      "stateMutability": "nonpayable",
      "type": "function"
    },
    {
      "constant": true,
      "inputs": [
        {
          "name": "to",
          "type": "address"
        },
        {
          "name": "approved",
          "type": "bool"
        }
      ],
      "name": "isOwner",
      "outputs": [
        {
          "name": "",
          "type": "bool"
        }
      ],
      "payable": false,
      "stateMutability": "view",
      "type": "function"
    },
    {
      "constant": false,
      "inputs": [
        {
          "name": "to",
          "type": "address"
        },
        {
          "name": "approved",
          "type": "bool"
        },
        {
          "name": "tokenId",
          "type": "uint256"
        },
        {
          "name": "_data",
          "type": "bytes"
        }
      ],
      "name": "setApprovalForAll",
      "outputs": [
        {
          "name": "",
          "type": "bool"
        }
      ],
      "payable": false,
      "stateMutability": "nonpayable",
      "type": "function"
    },
    {
      "constant": false,
      "inputs": [
        {
          "name": "from",
          "type": "address"
        },
        {
          "name": "to",
          "type": "address"
        },
        {
          "name": "tokenId",
          "type": "uint256"
        },
        {
          "name": "_data",
          "type": "bytes"
        }
      ],
      "name": "safeTransferFrom",
      "outputs": [
        {
          "name": "",
          "type": "bool"
        }
      ],
      "payable": false,
      "stateMutability": "nonpayable",
      "type": "function"
    },
    {
      "inputs": [
        {
          "name": "owner",
          "type": "address"
        },
        {
          "name": "operator",
          "type": "address"
        },
        {
          "name": "",
          "type": "bytes"
        },
        {
          "name": "_data",
          "type": "bytes"
        }
      ],
      "payable": false,
      "stateMutability": "view",
      "type": "function",
      "constant": true,
      "name": "isApprovedForAll",
      "outputs": [
        {
          "name": "",
          "type": "bool"
        }
      ]
    },
    {
      "anonymous": false,
      "inputs": [
        {
          "indexed": true,
          "name": "newOwner",
          "type": "address"
        },
        {
          "indexed": true,
          "name": "operator",
          "type": "address"
        },
        {
          "indexed": true,
          "name": "baseTokenURI",
          "type": "string"
        }
      ],
      "name": "transferOwnership",
      "type": "function",
      "payable": false,
      "stateMutability": "nonpayable",
      "constant": false,
      "outputs": [
        {
          "name": "",
          "type": "bool"
        }
      ]
    },
    {
      "anonymous": false,
      "inputs": [
        {
          "indexed": true,
          "name": "name",
          "type": "string"
        },
        {
          "indexed": true,
          "name": "symbol",
          "type": "string"
        },
        {
          "indexed": true,
          "name": "baseTokenURI",
          "type": "string"
        }
      ],
      "name": "receiver",
      "type": "constructor",
      "payable": false,
      "stateMutability": "nonpayable",
      "constant": true,
      "outputs": [
        {
          "name": "",
          "type": "address"
        }
      ]
    },
    {
      "anonymous": false,
      "inputs": [
        {
          "indexed": true,
          "name": "from",
          "type": "address"
        },
        {
          "indexed": true,
          "name": "to",
          "type": "address"
        },
        {
          "indexed": true,
          "name": "tokenId",
          "type": "uint256"
        }
      ],
      "name": "Transfer",
      "type": "event",
      "constant": false,
      "outputs": [
        {
          "name": "",
          "type": "address"
        }
      ],
      "payable": false,
      "stateMutability": "nonpayable"
    },
    {
      "anonymous": false,
      "inputs": [
        {
          "indexed": true,
          "name": "owner",
          "type": "address"
        },
        {
          "indexed": true,
          "name": "approved",
          "type": "address"
        },
        {
          "indexed": true,
          "name": "tokenId",
          "type": "uint256"
        }
      ],
      "name": "Approval",
      "type": "event",
      "payable": false,
      "stateMutability": "view",
      "constant": true,
      "outputs": [
        {
          "name": "",
          "type": "address"
        }
      ]
    },
    {
      "anonymous": false,
      "inputs": [
        {
          "indexed": true,
          "name": "owner",
          "type": "address"
        },
        {
          "indexed": true,
          "name": "operator",
          "type": "address"
        },
        {
          "indexed": false,
          "name": "approved",
          "type": "bool"
        }
      ],
      "name": "ApprovalForAll",
      "type": "event",
      "payable": false,
      "stateMutability": "nonpayable"
    },
    {
      "anonymous": false,
      "inputs": [
        {
          "indexed": false,
          "name": "account",
          "type": "address"
        },
        {
          "indexed": true,
          "name": "operator",
          "type": "address"
        },
        {
          "indexed": false,
          "name": "approved",
          "type": "bool"
        }
      ],
      "name": "Paused",
      "type": "event"
    },
    {
      "constant": true,
      "inputs": [
        {
          "indexed": false,
          "name": "account",
          "type": "address"
        },
        {
          "indexed": true,
          "name": "approved",
          "type": "address"
        },
        {
          "indexed": true,
          "name": "tokenId",
          "type": "uint256"
        }
      ],
      "name": "Unpaused",
      "outputs": [
        {
          "name": "",
          "type": "string"
        }
      ],
      "payable": false,
      "stateMutability": "view",
      "type": "event",
      "anonymous": false
    },
    {
      "constant": true,
      "inputs": [
        {
          "indexed": true,
          "name": "previousOwner",
          "type": "address"
        },
        {
          "indexed": true,
          "name": "newOwner",
          "type": "address"
        },
        {
          "indexed": false,
          "name": "approved",
          "type": "bool"
        }
      ],
      "name": "OwnershipTransferred",
      "outputs": [
        {
          "name": "",
          "type": "string"
        }
      ],
      "payable": false,
      "stateMutability": "view",
      "type": "event",
      "anonymous": false
    },
    {
      "constant": true,
      "inputs": [
        {
          "indexed": true,
          "name": "previousOwner",
          "type": "address"
        },
        {
          "indexed": true,
          "name": "newOwner",
          "type": "address"
        }
      ],
      "name": "name",
      "outputs": [
        {
          "name": "",
          "type": "string"
        }
      ],
      "payable": false,
      "stateMutability": "view",
      "type": "function",
      "anonymous": false
    },
    {
      "constant": true,
      "inputs": [
        {
          "name": "_indexed",
          "type": "address",
          "indexed": false
        },
        {
          "indexed": true,
          "name": "newOwner",
          "type": "address"
        }
      ],
      "name": "symbol",
      "outputs": [
        {
          "name": "",
          "type": "string"
        }
      ],
      "payable": false,
      "stateMutability": "view",
      "type": "function",
      "anonymous": false
    },
    {
      "constant": true,
      "inputs": [
        {
          "name": "oldOwner",
          "type": "address",
          "indexed": true
        },
        {
          "indexed": true,
          "name": "newOwner",
          "type": "address"
        }
      ],
      "name": "baseTokenURI",
      "outputs": [
        {
          "name": "",
          "type": "string"
        }
      ],
      "payable": false,
      "stateMutability": "view",
      "type": "function",
      "anonymous": false
    },
    {
      "constant": true,
      "inputs": [
        {
          "name": "tokenId",
          "type": "uint256"
        }
      ],
      "name": "tokenURI",
      "outputs": [
        {
          "name": "",
          "type": "string"
        }
      ],
      "payable": false,
      "stateMutability": "view",
      "type": "function"
    },
    {
      "constant": true,
      "inputs": [
        {
          "name": "tokenId",
          "type": "uint256"
        }
      ],
      "name": "tokenURI",
      "outputs": [
        {
          "name": "",
          "type": "string"
        }
      ],
      "payable": false,
      "stateMutability": "view",
      "type": "function"
    },
    {
      "constant": false,
      "inputs": [
        {
          "name": "tokenId",
          "type": "uint256"
        }
      ],
      "name": "setTokenURI",
      "outputs": [
        {
          "name": "",
          "type": "string"
        }
      ],
      "payable": false,
      "stateMutability": "nonpayable",
      "type": "function"
    },
    {
      "constant": true,
      "inputs": [
        {
          "name": "tokenId",
          "type": "uint256"
        }
      ],
      "name": "tokenURI",
      "outputs": [
        {
          "name": "",
          "type": "string"
        }
      ],
      "payable": false,
      "stateMutability": "view",
      "type": "function"
    },
    {
      "constant": false,
      "inputs": [
        {
          "name": "tokenId",
          "type": "uint256"
        }
      ],
      "name": "setTokenURI",
      "outputs": [],
      "payable": false,
      "stateMutability": "nonpayable",
      "type": "function"
    }
  ],
  "bytecode": "0x60806040523480156200001157600080fd5b506040516200264d3803806200264d833981018060405260608110156200003757600080fd5b8101908080516401000000008111156200005057600080fd5b828101905060208101848111156200006757600080fd5b81518560018202830111640100000000821117156200008557600080fd5b50509291906020018051640100000000811115620000a257600080fd5b82810190506020810184811115620000b957600080fd5b8151856001820283011164010000000082111715620000d757600080fd5b50509291906020018051640100000000811115620000f457600080fd5b828101905060208101848111156200010b57600080fd5b81518560018202830111640100000000821117156200012957600080fd5b5050929190505050336000806101000a81548173ffffffffffffffffffffffffffffffffffffffff021916908373ffffffffffffffffffffffffffffffffffffffff1602179055506000809054906101000a900473ffffffffffffffffffffffffffffffffffffffff1673ffffffffffffffffffffffffffffffffffffffff16600073ffffffffffffffffffffffffffffffffffffffff167f8be0079c531659141344cd1fd0a4f28419497f9722a3daafe3b4186f6b6457e060405160405180910390a360008060146101000a81548160ff021916908315150217905550620002446301ffc9a77c0100000000000000000000000000000000000000000000000000000000026200034f640100000000026401000000009004565b620002816380ac58cd7c0100000000000000000000000000000000000000000000000000000000026200034f640100000000026401000000009004565b620002be63780e9d637c0100000000000000000000000000000000000000000000000000000000026200034f640100000000026401000000009004565b82600f9080519060200190620002d69291906200040d565b508160109080519060200190620002ef9291906200040d565b508060119080519060200190620003089291906200040d565b5062000346635b5e139f7c0100000000000000000000000000000000000000000000000000000000026200034f640100000000026401000000009004565b505050620004bc565b63ffffffff7c010000000000000000000000000000000000000000000000000000000002817bffffffffffffffffffffffffffffffffffffffffffffffffffffffff191614151515620003a157600080fd5b6001806000837bffffffffffffffffffffffffffffffffffffffffffffffffffffffff19167bffffffffffffffffffffffffffffffffffffffffffffffffffffffff1916815260200190815260200160002060006101000a81548160ff02191690831515021790555050565b828054600181600116156101000203166002900490600052602060002090601f016020900481019282601f106200045057805160ff191683800117855562000481565b8280016001018555821562000481579182015b828111156200048057825182559160200191906001019062000463565b5b50905062000490919062000494565b5090565b620004b991905b80821115620004b55760008160009055506001016200049b565b5090565b90565b61218180620004cc6000396000f3fe608060405260043610610133576000357c0100000000000000000000000000000000000000000000000000000000900463ffffffff16806301ffc9a71461013857806306fdde03146101aa578063081812fc1461023a578063095ea7b3146102b557806318160ddd1461031057806323b872dd1461033b57806327dc297e146103b65780632f745c591461048857806338bbfa50146104f75780633f4ba83a1461066057806342842e0e146106775780634f6ccce7146106f25780636352211e1461074157806370a08231146107bc5780638456cb59146108215780638f32d59b1461083857806395d89b4114610867578063a22cb465146108f7578063b88d4fde14610954578063c87b56dd14610a66578063d547cfb714610b1a578063e985e9c514610baa578063f2fde38b14610c33575b600080fd5b34801561014457600080fd5b506101906004803603602081101561015b57600080fd5b8101908080357bffffffffffffffffffffffffffffffffffffffffffffffffffffffff19169060200190929190505050610c84565b604051808215151515815260200191505060405180910390f35b3480156101b657600080fd5b506101bf610cec565b6040518080602001828103825283818151815260200191508051906020019080838360005b838110156101ff5780820151818401526020810190506101e4565b50505050905090810190601f16801561022c5780820380516001836020036101000a031916815260200191505b509250505060405180910390f35b34801561024657600080fd5b506102736004803603602081101561025d57600080fd5b8101908080359060200190929190505050610d8e565b604051808273ffffffffffffffffffffffffffffffffffffffff1673ffffffffffffffffffffffffffffffffffffffff16815260200191505060405180910390f35b3480156102c157600080fd5b5061030e600480360360408110156102d857600080fd5b81019080803573ffffffffffffffffffffffffffffffffffffffff16906020019092919080359060200190929190505050610ddf565b005b34801561031c57600080fd5b50610325610f24565b6040518082815260200191505060405180910390f35b34801561034757600080fd5b506103b46004803603606081101561035e57600080fd5b81019080803573ffffffffffffffffffffffffffffffffffffffff169060200190929190803573ffffffffffffffffffffffffffffffffffffffff16906020019092919080359060200190929190505050610f31565b005b3480156103c257600080fd5b50610486600480360360408110156103d957600080fd5b81019080803590602001909291908035906020019064010000000081111561040057600080fd5b82018360208201111561041257600080fd5b8035906020019184600183028401116401000000008311171561043457600080fd5b91908080601f016020809104026020016040519081016040528093929190818152602001838380828437600081840152601f19601f820116905080830192505050505050509192919290505050610f56565b005b34801561049457600080fd5b506104e1600480360360408110156104ab57600080fd5b81019080803573ffffffffffffffffffffffffffffffffffffffff16906020019092919080359060200190929190505050610f99565b6040518082815260200191505060405180910390f35b34801561050357600080fd5b5061065e6004803603606081101561051a57600080fd5b81019080803590602001909291908035906020019064010000000081111561054157600080fd5b82018360208201111561055357600080fd5b8035906020019184600183028401116401000000008311171561057557600080fd5b91908080601f016020809104026020016040519081016040528093929190818152602001838380828437600081840152601f19601f820116905080830192505050505050509192919290803590602001906401000000008111156105d857600080fd5b8201836020820111156105ea57600080fd5b8035906020019184600183028401116401000000008311171561060c57600080fd5b91908080601f016020809104026020016040519081016040528093929190818152602001838380828437600081840152601f19601f820116905080830192505050505050509192919290505050611010565b005b34801561066c57600080fd5b50610675611015565b005b34801561068357600080fd5b506106f06004803603606081101561069a57600080fd5b81019080803573ffffffffffffffffffffffffffffffffffffffff169060200190929190803573ffffffffffffffffffffffffffffffffffffffff169060200190929190803590602001909291905050506110c2565b005b3480156106fe57600080fd5b5061072b6004803603602081101561071557600080fd5b81019080803590602001909291905050506110e3565b6040518082815260200191505060405180910390f35b34801561074d57600080fd5b5061077a6004803603602081101561076457600080fd5b810190808035906020019092919050505061111b565b604051808273ffffffffffffffffffffffffffffffffffffffff1673ffffffffffffffffffffffffffffffffffffffff16815260200191505060405180910390f35b3480156107c857600080fd5b5061080b600480360360208110156107df57600080fd5b81019080803573ffffffffffffffffffffffffffffffffffffffff169060200190929190505050611199565b6040518082815260200191505060405180910390f35b34801561082d57600080fd5b50610836611224565b005b34801561084457600080fd5b5061084d6112d3565b604051808215151515815260200191505060405180910390f35b34801561087357600080fd5b5061087c61132a565b6040518080602001828103825283818151815260200191508051906020019080838360005b838110156108bc5780820151818401526020810190506108a1565b50505050905090810190601f1680156108e95780820380516001836020036101000a031916815260200191505b509250505060405180910390f35b34801561090357600080fd5b506109526004803603604081101561091a57600080fd5b81019080803573ffffffffffffffffffffffffffffffffffffffff1690602001909291908035151590602001909291905050506113cc565b005b34801561096057600080fd5b50610a646004803603608081101561097757600080fd5b81019080803573ffffffffffffffffffffffffffffffffffffffff169060200190929190803573ffffffffffffffffffffffffffffffffffffffff16906020019092919080359060200190929190803590602001906401000000008111156109de57600080fd5b8201836020820111156109f057600080fd5b80359060200191846001830284011164010000000083111715610a1257600080fd5b91908080601f016020809104026020016040519081016040528093929190818152602001838380828437600081840152601f19601f820116905080830192505050505050509192919290505050611508565b005b348015610a7257600080fd5b50610a9f60048036036020811015610a8957600080fd5b8101908080359060200190929190505050611530565b6040518080602001828103825283818151815260200191508051906020019080838360005b83811015610adf578082015181840152602081019050610ac4565b50505050905090810190601f168015610b0c5780820380516001836020036101000a031916815260200191505b509250505060405180910390f35b348015610b2657600080fd5b50610b2f6115f9565b6040518080602001828103825283818151815260200191508051906020019080838360005b83811015610b6f578082015181840152602081019050610b54565b50505050905090810190601f168015610b9c5780820380516001836020036101000a031916815260200191505b509250505060405180910390f35b348015610bb657600080fd5b50610c1960048036036040811015610bcd57600080fd5b81019080803573ffffffffffffffffffffffffffffffffffffffff169060200190929190803573ffffffffffffffffffffffffffffffffffffffff16906020019092919050505061169b565b604051808215151515815260200191505060405180910390f35b348015610c3f57600080fd5b50610c8260048036036020811015610c5657600080fd5b81019080803573ffffffffffffffffffffffffffffffffffffffff16906020019092919050505061172f565b005b600060016000837bffffffffffffffffffffffffffffffffffffffffffffffffffffffff19167bffffffffffffffffffffffffffffffffffffffffffffffffffffffff1916815260200190815260200160002060009054906101000a900460ff169050919050565b6060600f8054600181600116156101000203166002900480601f016020809104026020016040519081016040528092919081815260200182805460018160011615610100020316600290048015610d845780601f10610d5957610100808354040283529160200191610d84565b820191906000526020600020905b815481529060010190602001808311610d6757829003601f168201915b5050505050905090565b6000610d998261174e565b1515610da457600080fd5b6003600083815260200190815260200160002060009054906101000a900473ffffffffffffffffffffffffffffffffffffffff169050919050565b6000610dea8261111b565b90508073ffffffffffffffffffffffffffffffffffffffff168373ffffffffffffffffffffffffffffffffffffffff1614151515610e2757600080fd5b8073ffffffffffffffffffffffffffffffffffffffff163373ffffffffffffffffffffffffffffffffffffffff161480610e675750610e66813361169b565b5b1515610e7257600080fd5b826003600084815260200190815260200160002060006101000a81548173ffffffffffffffffffffffffffffffffffffffff021916908373ffffffffffffffffffffffffffffffffffffffff160217905550818373ffffffffffffffffffffffffffffffffffffffff168273ffffffffffffffffffffffffffffffffffffffff167f8c5be1e5ebec7d5bd14f71427d1e84f3dd0314c0f7b2291e5b200ac8c7c3b92560405160405180910390a4505050565b6000600880549050905090565b610f3b33826117c0565b1515610f4657600080fd5b610f51838383611855565b505050565b610f95828260006040519080825280601f01601f191660200182016040528015610f8f5781602001600182028038833980820191505090505b50611010565b5050565b6000610fa483611199565b82101515610fb157600080fd5b600660008473ffffffffffffffffffffffffffffffffffffffff1673ffffffffffffffffffffffffffffffffffffffff16815260200190815260200160002082815481101515610ffd57fe5b9060005260206000200154905092915050565b505050565b61101d6112d3565b151561102857600080fd5b600060149054906101000a900460ff16151561104357600080fd5b60008060146101000a81548160ff0219169083151502179055507f5db9ee0a495bf2e6ff9c91a7834c1ba4fdd244a5e8aa4e537bd38aeae4b073aa33604051808273ffffffffffffffffffffffffffffffffffffffff1673ffffffffffffffffffffffffffffffffffffffff16815260200191505060405180910390a1565b6110de8383836020604051908101604052806000815250611508565b505050565b60006110ed610f24565b821015156110fa57600080fd5b60088281548110151561110957fe5b90600052602060002001549050919050565b6000806002600084815260200190815260200160002060009054906101000a900473ffffffffffffffffffffffffffffffffffffffff169050600073ffffffffffffffffffffffffffffffffffffffff168173ffffffffffffffffffffffffffffffffffffffff161415151561119057600080fd5b80915050919050565b60008073ffffffffffffffffffffffffffffffffffffffff168273ffffffffffffffffffffffffffffffffffffffff16141515156111d657600080fd5b61121d600460008473ffffffffffffffffffffffffffffffffffffffff1673ffffffffffffffffffffffffffffffffffffffff168152602001908152602001600020611879565b9050919050565b61122c6112d3565b151561123757600080fd5b600060149054906101000a900460ff1615151561125357600080fd5b6001600060146101000a81548160ff0219169083151502179055507f62e78cea01bee320cd4e420270b5ea74000d11b0c9f74754ebdbfc544b05a25833604051808273ffffffffffffffffffffffffffffffffffffffff1673ffffffffffffffffffffffffffffffffffffffff16815260200191505060405180910390a1565b60008060009054906101000a900473ffffffffffffffffffffffffffffffffffffffff1673ffffffffffffffffffffffffffffffffffffffff163373ffffffffffffffffffffffffffffffffffffffff1614905090565b606060108054600181600116156101000203166002900480601f0160208091040260200160405190810160405280929190818152602001828054600181600116156101000203166002900480156113c25780601f10611397576101008083540402835291602001916113c2565b820191906000526020600020905b8154815290600101906020018083116113a557829003601f168201915b5050505050905090565b3373ffffffffffffffffffffffffffffffffffffffff168273ffffffffffffffffffffffffffffffffffffffff161415151561140757600080fd5b80600560003373ffffffffffffffffffffffffffffffffffffffff1673ffffffffffffffffffffffffffffffffffffffff16815260200190815260200160002060008473ffffffffffffffffffffffffffffffffffffffff1673ffffffffffffffffffffffffffffffffffffffff16815260200190815260200160002060006101000a81548160ff0219169083151502179055508173ffffffffffffffffffffffffffffffffffffffff163373ffffffffffffffffffffffffffffffffffffffff167f17307eab39ab6107e8899845ad3d59bd9653f200f220920489ca2b5937696c3183604051808215151515815260200191505060405180910390a35050565b611513848484610f31565b61151f84848484611887565b151561152a57600080fd5b50505050565b606061153b8261174e565b151561154657600080fd5b601260008381526020019081526020016000208054600181600116156101000203166002900480601f0160208091040260200160405190810160405280929190818152602001828054600181600116156101000203166002900480156115ed5780601f106115c2576101008083540402835291602001916115ed565b820191906000526020600020905b8154815290600101906020018083116115d057829003601f168201915b50505050509050919050565b606060118054600181600116156101000203166002900480601f0160208091040260200160405190810160405280929190818152602001828054600181600116156101000203166002900480156116915780601f1061166657610100808354040283529160200191611691565b820191906000526020600020905b81548152906001019060200180831161167457829003601f168201915b5050505050905090565b6000600560008473ffffffffffffffffffffffffffffffffffffffff1673ffffffffffffffffffffffffffffffffffffffff16815260200190815260200160002060008373ffffffffffffffffffffffffffffffffffffffff1673ffffffffffffffffffffffffffffffffffffffff16815260200190815260200160002060009054906101000a900460ff16905092915050565b6117376112d3565b151561174257600080fd5b61174b81611aaa565b50565b6000806002600084815260200190815260200160002060009054906101000a900473ffffffffffffffffffffffffffffffffffffffff169050600073ffffffffffffffffffffffffffffffffffffffff168173ffffffffffffffffffffffffffffffffffffffff161415915050919050565b6000806117cc8361111b565b90508073ffffffffffffffffffffffffffffffffffffffff168473ffffffffffffffffffffffffffffffffffffffff16148061183b57508373ffffffffffffffffffffffffffffffffffffffff1661182384610d8e565b73ffffffffffffffffffffffffffffffffffffffff16145b8061184c575061184b818561169b565b5b91505092915050565b611860838383611ba4565b61186a8382611d6b565b6118748282611f0f565b505050565b600081600001549050919050565b60006118a88473ffffffffffffffffffffffffffffffffffffffff16611fd6565b15156118b75760019050611aa2565b60008473ffffffffffffffffffffffffffffffffffffffff1663150b7a02338887876040518563ffffffff167c0100000000000000000000000000000000000000000000000000000000028152600401808573ffffffffffffffffffffffffffffffffffffffff1673ffffffffffffffffffffffffffffffffffffffff1681526020018473ffffffffffffffffffffffffffffffffffffffff1673ffffffffffffffffffffffffffffffffffffffff16815260200183815260200180602001828103825283818151815260200191508051906020019080838360005b838110156119ae578082015181840152602081019050611993565b50505050905090810190601f1680156119db5780820380516001836020036101000a031916815260200191505b5095505050505050602060405180830381600087803b1580156119fd57600080fd5b505af1158015611a11573d6000803e3d6000fd5b505050506040513d6020811015611a2757600080fd5b8101908080519060200190929190505050905063150b7a027c0100000000000000000000000000000000000000000000000000000000027bffffffffffffffffffffffffffffffffffffffffffffffffffffffff1916817bffffffffffffffffffffffffffffffffffffffffffffffffffffffff1916149150505b949350505050565b600073ffffffffffffffffffffffffffffffffffffffff168173ffffffffffffffffffffffffffffffffffffffff1614151515611ae657600080fd5b8073ffffffffffffffffffffffffffffffffffffffff166000809054906101000a900473ffffffffffffffffffffffffffffffffffffffff1673ffffffffffffffffffffffffffffffffffffffff167f8be0079c531659141344cd1fd0a4f28419497f9722a3daafe3b4186f6b6457e060405160405180910390a3806000806101000a81548173ffffffffffffffffffffffffffffffffffffffff021916908373ffffffffffffffffffffffffffffffffffffffff16021790555050565b8273ffffffffffffffffffffffffffffffffffffffff16611bc48261111b565b73ffffffffffffffffffffffffffffffffffffffff16141515611be657600080fd5b600073ffffffffffffffffffffffffffffffffffffffff168273ffffffffffffffffffffffffffffffffffffffff1614151515611c2257600080fd5b611c2b81611fe9565b611c72600460008573ffffffffffffffffffffffffffffffffffffffff1673ffffffffffffffffffffffffffffffffffffffff1681526020019081526020016000206120a9565b611cb9600460008473ffffffffffffffffffffffffffffffffffffffff1673ffffffffffffffffffffffffffffffffffffffff1681526020019081526020016000206120cc565b816002600083815260200190815260200160002060006101000a81548173ffffffffffffffffffffffffffffffffffffffff021916908373ffffffffffffffffffffffffffffffffffffffff160217905550808273ffffffffffffffffffffffffffffffffffffffff168473ffffffffffffffffffffffffffffffffffffffff167fddf252ad1be2c89b69c2b068fc378daa952ba7f163c4a11628f55a4df523b3ef60405160405180910390a4505050565b6000611dc36001600660008673ffffffffffffffffffffffffffffffffffffffff1673ffffffffffffffffffffffffffffffffffffffff168152602001908152602001600020805490506120e290919063ffffffff16565b90506000600760008481526020019081526020016000205490508181141515611eb6576000600660008673ffffffffffffffffffffffffffffffffffffffff1673ffffffffffffffffffffffffffffffffffffffff16815260200190815260200160002083815481101515611e3457fe5b9060005260206000200154905080600660008773ffffffffffffffffffffffffffffffffffffffff1673ffffffffffffffffffffffffffffffffffffffff16815260200190815260200160002083815481101515611e8e57fe5b9060005260206000200181905550816007600083815260200190815260200160002081905550505b600660008573ffffffffffffffffffffffffffffffffffffffff1673ffffffffffffffffffffffffffffffffffffffff168152602001908152602001600020805480919060019003611f089190612104565b5050505050565b600660008373ffffffffffffffffffffffffffffffffffffffff1673ffffffffffffffffffffffffffffffffffffffff168152602001908152602001600020805490506007600083815260200190815260200160002081905550600660008373ffffffffffffffffffffffffffffffffffffffff1673ffffffffffffffffffffffffffffffffffffffff1681526020019081526020016000208190806001815401808255809150509060018203906000526020600020016000909192909190915055505050565b600080823b905060008111915050919050565b600073ffffffffffffffffffffffffffffffffffffffff166003600083815260200190815260200160002060009054906101000a900473ffffffffffffffffffffffffffffffffffffffff1673ffffffffffffffffffffffffffffffffffffffff161415156120a65760006003600083815260200190815260200160002060006101000a81548173ffffffffffffffffffffffffffffffffffffffff021916908373ffffffffffffffffffffffffffffffffffffffff1602179055505b50565b6120c1600182600001546120e290919063ffffffff16565b816000018190555050565b6001816000016000828254019250508190555050565b60008282111515156120f357600080fd5b600082840390508091505092915050565b81548183558181111561212b5781836000526020600020918201910161212a9190612130565b5b505050565b61215291905b8082111561214e576000816000905550600101612136565b5090565b9056fea165627a7a7230582083be209051a846d42dc4bd09c09e337ef4de6c2d72608884fea86263d8744a1b0029",
  "source": "pragma solidity ^0.5.0;\r\n\r\nimport 'openzeppelin-solidity/contracts/utils/Address.sol';\r\nimport 'openzeppelin-solidity/contracts/drafts/Counters.sol';\r\nimport 'openzeppelin-solidity/contracts/math/SafeMath.sol';\r\nimport 'openzeppelin-solidity/contracts/token/ERC721/IERC721Receiver.sol';\r\nimport \"./Oraclize.sol\";\r\n\r\ncontract Ownable {\r\n    //  TODO's\r\n    //  1) create a private '_owner' variable of type address with a public getter function\r\n    address private _owner;\r\n    //  2) create an internal constructor that sets the _owner var to the creater of the contract\r\n    constructor () internal {\r\n        _owner = msg.sender;\r\n        emit OwnershipTransferred(address(0), _owner);\r\n    } \r\n    //  3) create an 'onlyOwner' modifier that throws if called by any account other than the owner.\r\n    modifier onlyOwner() {\r\n        require(isOwner());\r\n        _;\r\n    }\r\n    function isOwner() public view returns (bool) {\r\n        return msg.sender == _owner;\r\n    }\r\n    //  5) create an event that emits anytime ownerShip is transfered (including in the constructor)\r\n    event OwnershipTransferred(address indexed previousOwner, address indexed newOwner);\r\n    //  4) fill out the transferOwnership function\r\n    function transferOwnership(address newOwner) public onlyOwner {\r\n        _transferOwnership(newOwner);\r\n    }\r\n\r\n    /**\r\n     * @dev Transfers control of the contract to a newOwner.\r\n     * @param newOwner The address to transfer ownership to.\r\n     */\r\n    function _transferOwnership(address newOwner) internal {\r\n        require(newOwner != address(0));\r\n        emit OwnershipTransferred(_owner, newOwner);\r\n        _owner = newOwner;\r\n    }\r\n}\r\n\r\n//  TODO's: Create a Pausable contract that inherits from the Ownable contract\r\ncontract Pausable is Ownable{\r\n    //  1) create a private '_paused' variable of type bool\r\n    bool private _paused;\r\n    //  2) create a public setter using the inherited onlyOwner modifier\r\n    function pause() public onlyOwner whenNotPaused {\r\n        _paused = true;\r\n        emit Paused(msg.sender);\r\n    } \r\n\r\n    function unpause() public onlyOwner whenPaused {\r\n        _paused = false;\r\n        emit Unpaused(msg.sender);\r\n    }\r\n    //  3) create an internal constructor that sets the _paused variable to false\r\n    constructor () internal {\r\n        _paused = false;\r\n    }\r\n    //  4) create 'whenNotPaused' & 'paused' modifier that throws in the appropriate situation\r\n    modifier whenNotPaused() {\r\n        require(!_paused);\r\n        _;\r\n    }\r\n    modifier whenPaused() {\r\n        require(_paused);\r\n        _;\r\n    }\r\n    //  5) create a Paused & Unpaused event that emits the address that triggered the event\r\n    event Paused(address account);\r\n    event Unpaused(address account);  \r\n}\r\n\r\n\r\ncontract ERC165 {\r\n    bytes4 private constant _INTERFACE_ID_ERC165 = 0x01ffc9a7;\r\n    /*\r\n     * 0x01ffc9a7 ===\r\n     *     bytes4(keccak256('supportsInterface(bytes4)'))\r\n     */\r\n\r\n    /**\r\n     * @dev a mapping of interface id to whether or not it's supported\r\n     */\r\n    mapping(bytes4 => bool) private _supportedInterfaces;\r\n\r\n    /**\r\n     * @dev A contract implementing SupportsInterfaceWithLookup\r\n     * implement ERC165 itself\r\n     */\r\n    constructor () internal {\r\n        _registerInterface(_INTERFACE_ID_ERC165);\r\n    }\r\n\r\n    /**\r\n     * @dev implement supportsInterface(bytes4) using a lookup table\r\n     */\r\n    function supportsInterface(bytes4 interfaceId) external view returns (bool) {\r\n        return _supportedInterfaces[interfaceId];\r\n    }\r\n\r\n    /**\r\n     * @dev internal method for registering an interface\r\n     */\r\n    function _registerInterface(bytes4 interfaceId) internal {\r\n        require(interfaceId != 0xffffffff);\r\n        _supportedInterfaces[interfaceId] = true;\r\n    }\r\n}\r\n\r\ncontract ERC721 is Pausable, ERC165 {\r\n\r\n    event Transfer(address indexed from, address indexed to, uint256 indexed tokenId);\r\n\r\n    event Approval(address indexed owner, address indexed approved, uint256 indexed tokenId);\r\n\r\n    event ApprovalForAll(address indexed owner, address indexed operator, bool approved);\r\n    \r\n    using SafeMath for uint256;\r\n    using Address for address;\r\n    using Counters for Counters.Counter;\r\n\r\n    // Equals to `bytes4(keccak256(\"onERC721Received(address,address,uint256,bytes)\"))`\r\n    // which can be also obtained as `IERC721Receiver(0).onERC721Received.selector`\r\n    bytes4 private constant _ERC721_RECEIVED = 0x150b7a02;\r\n\r\n    // Mapping from token ID to owner\r\n    mapping (uint256 => address) private _tokenOwner;\r\n\r\n    // Mapping from token ID to approved address\r\n    mapping (uint256 => address) private _tokenApprovals;\r\n\r\n    // Mapping from owner to number of owned token\r\n    // IMPORTANT: this mapping uses Counters lib which is used to protect overflow when incrementing/decrementing a uint\r\n    // use the following functions when interacting with Counters: increment(), decrement(), and current() to get the value\r\n    // see: https://github.com/OpenZeppelin/openzeppelin-solidity/blob/master/contracts/drafts/Counters.sol\r\n    mapping (address => Counters.Counter) private _ownedTokensCount;\r\n\r\n    // Mapping from owner to operator approvals\r\n    mapping (address => mapping (address => bool)) private _operatorApprovals;\r\n\r\n    bytes4 private constant _INTERFACE_ID_ERC721 = 0x80ac58cd;\r\n\r\n    constructor () public {\r\n        // register the supported interfaces to conform to ERC721 via ERC165\r\n        _registerInterface(_INTERFACE_ID_ERC721);\r\n    }\r\n\r\n    function balanceOf(address owner) public view returns (uint256) {\r\n        require(owner != address(0));\r\n        return _ownedTokensCount[owner].current();\r\n    }\r\n\r\n    function ownerOf(uint256 tokenId) public view returns (address) {\r\n        // TODO return the owner of the given tokenId\r\n        address owner = _tokenOwner[tokenId];\r\n        require(owner != address(0));\r\n        return owner;\r\n    }\r\n\r\n//    @dev Approves another address to transfer the given token ID\r\n    function approve(address to, uint256 tokenId) public {\r\n        address owner = ownerOf(tokenId);\r\n        // TODO require the given address to not be the owner of the tokenId\r\n        require(to != owner);\r\n        // TODO require the msg sender to be the owner of the contract or isApprovedForAll() to be true\r\n        require(msg.sender == owner || isApprovedForAll(owner, msg.sender));\r\n        // TODO add 'to' address to token approvals\r\n        _tokenApprovals[tokenId] = to;\r\n        // TODO emit Approval Event\r\n        emit Approval(owner, to, tokenId);\r\n\r\n    }\r\n\r\n    function getApproved(uint256 tokenId) public view returns (address) {\r\n        // TODO return token approval if it exists\r\n        require(_exists(tokenId));\r\n        return _tokenApprovals[tokenId];\r\n    }\r\n\r\n    /**\r\n     * @dev Sets or unsets the approval of a given operator\r\n     * An operator is allowed to transfer all tokens of the sender on their behalf\r\n     * @param to operator address to set the approval\r\n     * @param approved representing the status of the approval to be set\r\n     */\r\n    function setApprovalForAll(address to, bool approved) public {\r\n        require(to != msg.sender);\r\n        _operatorApprovals[msg.sender][to] = approved;\r\n        emit ApprovalForAll(msg.sender, to, approved);\r\n    }\r\n\r\n    /**\r\n     * @dev Tells whether an operator is approved by a given owner\r\n     * @param owner owner address which you want to query the approval of\r\n     * @param operator operator address which you want to query the approval of\r\n     * @return bool whether the given operator is approved by the given owner\r\n     */\r\n    function isApprovedForAll(address owner, address operator) public view returns (bool) {\r\n        return _operatorApprovals[owner][operator];\r\n    }\r\n\r\n    function transferFrom(address from, address to, uint256 tokenId) public {\r\n        require(_isApprovedOrOwner(msg.sender, tokenId));\r\n\r\n        _transferFrom(from, to, tokenId);\r\n    }\r\n\r\n    function safeTransferFrom(address from, address to, uint256 tokenId) public {\r\n        safeTransferFrom(from, to, tokenId, \"\");\r\n    }\r\n\r\n    function safeTransferFrom(address from, address to, uint256 tokenId, bytes memory _data) public {\r\n        transferFrom(from, to, tokenId);\r\n        require(_checkOnERC721Received(from, to, tokenId, _data));\r\n    }\r\n\r\n    /**\r\n     * @dev Returns whether the specified token exists\r\n     * @param tokenId uint256 ID of the token to query the existence of\r\n     * @return bool whether the token exists\r\n     */\r\n    function _exists(uint256 tokenId) internal view returns (bool) {\r\n        address owner = _tokenOwner[tokenId];\r\n        return owner != address(0);\r\n    }\r\n\r\n    /**\r\n     * @dev Returns whether the given spender can transfer a given token ID\r\n     * @param spender address of the spender to query\r\n     * @param tokenId uint256 ID of the token to be transferred\r\n     * @return bool whether the msg.sender is approved for the given token ID,\r\n     * is an operator of the owner, or is the owner of the token\r\n     */\r\n    function _isApprovedOrOwner(address spender, uint256 tokenId) internal view returns (bool) {\r\n        address owner = ownerOf(tokenId);\r\n        return (spender == owner || getApproved(tokenId) == spender || isApprovedForAll(owner, spender));\r\n    }\r\n\r\n    // @dev Internal function to mint a new token\r\n    // TIP: remember the functions to use for Counters. you can refresh yourself with the link above\r\n    function _mint(address to, uint256 tokenId) internal {\r\n\r\n        // TODO revert if given tokenId already exists or given address is invalid\r\n        require(to != address(0));\r\n        require(!_exists(tokenId));  \r\n        // TODO mint tokenId to given address & increase token count of owner\r\n        _tokenOwner[tokenId] = to;\r\n        _ownedTokensCount[to].increment();\r\n        // TODO emit Transfer event\r\n        emit Transfer(address(0), to, tokenId);\r\n    }\r\n\r\n    // @dev Internal function to transfer ownership of a given token ID to another address.\r\n    // TIP: remember the functions to use for Counters. you can refresh yourself with the link above\r\n    function _transferFrom(address from, address to, uint256 tokenId) internal {\r\n\r\n        // TODO: require from address is the owner of the given token\r\n        require(ownerOf(tokenId) == from);\r\n\r\n        // TODO: require token is being transfered to valid address\r\n        require(to != address(0));        \r\n        // TODO: clear approval\r\n        _clearApproval(tokenId);\r\n        // TODO: update token counts & transfer ownership of the token ID \r\n        _ownedTokensCount[from].decrement();\r\n        _ownedTokensCount[to].increment();\r\n        _tokenOwner[tokenId] = to;\r\n        // TODO: emit correct event\r\n        emit Transfer(from, to, tokenId);\r\n    }\r\n\r\n    /**\r\n     * @dev Internal function to invoke `onERC721Received` on a target address\r\n     * The call is not executed if the target address is not a contract\r\n     * @param from address representing the previous owner of the given token ID\r\n     * @param to target address that will receive the tokens\r\n     * @param tokenId uint256 ID of the token to be transferred\r\n     * @param _data bytes optional data to send along with the call\r\n     * @return bool whether the call correctly returned the expected magic value\r\n     */\r\n    function _checkOnERC721Received(address from, address to, uint256 tokenId, bytes memory _data)\r\n        internal returns (bool)\r\n    {\r\n        if (!to.isContract()) {\r\n            return true;\r\n        }\r\n\r\n        bytes4 retval = IERC721Receiver(to).onERC721Received(msg.sender, from, tokenId, _data);\r\n        return (retval == _ERC721_RECEIVED);\r\n    }\r\n\r\n    // @dev Private function to clear current approval of a given token ID\r\n    function _clearApproval(uint256 tokenId) private {\r\n        if (_tokenApprovals[tokenId] != address(0)) {\r\n            _tokenApprovals[tokenId] = address(0);\r\n        }\r\n    }\r\n}\r\n\r\ncontract ERC721Enumerable is ERC165, ERC721 {\r\n    // Mapping from owner to list of owned token IDs\r\n    mapping(address => uint256[]) private _ownedTokens;\r\n\r\n    // Mapping from token ID to index of the owner tokens list\r\n    mapping(uint256 => uint256) private _ownedTokensIndex;\r\n\r\n    // Array with all token ids, used for enumeration\r\n    uint256[] private _allTokens;\r\n\r\n    // Mapping from token id to position in the allTokens array\r\n    mapping(uint256 => uint256) private _allTokensIndex;\r\n\r\n    bytes4 private constant _INTERFACE_ID_ERC721_ENUMERABLE = 0x780e9d63;\r\n    /*\r\n     * 0x780e9d63 ===\r\n     *     bytes4(keccak256('totalSupply()')) ^\r\n     *     bytes4(keccak256('tokenOfOwnerByIndex(address,uint256)')) ^\r\n     *     bytes4(keccak256('tokenByIndex(uint256)'))\r\n     */\r\n\r\n    /**\r\n     * @dev Constructor function\r\n     */\r\n    constructor () public {\r\n        // register the supported interface to conform to ERC721Enumerable via ERC165\r\n        _registerInterface(_INTERFACE_ID_ERC721_ENUMERABLE);\r\n    }\r\n\r\n    /**\r\n     * @dev Gets the token ID at a given index of the tokens list of the requested owner\r\n     * @param owner address owning the tokens list to be accessed\r\n     * @param index uint256 representing the index to be accessed of the requested tokens list\r\n     * @return uint256 token ID at the given index of the tokens list owned by the requested address\r\n     */\r\n    function tokenOfOwnerByIndex(address owner, uint256 index) public view returns (uint256) {\r\n        require(index < balanceOf(owner));\r\n        return _ownedTokens[owner][index];\r\n    }\r\n\r\n    /**\r\n     * @dev Gets the total amount of tokens stored by the contract\r\n     * @return uint256 representing the total amount of tokens\r\n     */\r\n    function totalSupply() public view returns (uint256) {\r\n        return _allTokens.length;\r\n    }\r\n\r\n    /**\r\n     * @dev Gets the token ID at a given index of all the tokens in this contract\r\n     * Reverts if the index is greater or equal to the total number of tokens\r\n     * @param index uint256 representing the index to be accessed of the tokens list\r\n     * @return uint256 token ID at the given index of the tokens list\r\n     */\r\n    function tokenByIndex(uint256 index) public view returns (uint256) {\r\n        require(index < totalSupply());\r\n        return _allTokens[index];\r\n    }\r\n\r\n    /**\r\n     * @dev Internal function to transfer ownership of a given token ID to another address.\r\n     * As opposed to transferFrom, this imposes no restrictions on msg.sender.\r\n     * @param from current owner of the token\r\n     * @param to address to receive the ownership of the given token ID\r\n     * @param tokenId uint256 ID of the token to be transferred\r\n     */\r\n    function _transferFrom(address from, address to, uint256 tokenId) internal {\r\n        super._transferFrom(from, to, tokenId);\r\n\r\n        _removeTokenFromOwnerEnumeration(from, tokenId);\r\n\r\n        _addTokenToOwnerEnumeration(to, tokenId);\r\n    }\r\n\r\n    /**\r\n     * @dev Internal function to mint a new token\r\n     * Reverts if the given token ID already exists\r\n     * @param to address the beneficiary that will own the minted token\r\n     * @param tokenId uint256 ID of the token to be minted\r\n     */\r\n    function _mint(address to, uint256 tokenId) internal {\r\n        super._mint(to, tokenId);\r\n\r\n        _addTokenToOwnerEnumeration(to, tokenId);\r\n\r\n        _addTokenToAllTokensEnumeration(tokenId);\r\n    }\r\n\r\n    /**\r\n     * @dev Gets the list of token IDs of the requested owner\r\n     * @param owner address owning the tokens\r\n     * @return uint256[] List of token IDs owned by the requested address\r\n     */\r\n    function _tokensOfOwner(address owner) internal view returns (uint256[] storage) {\r\n        return _ownedTokens[owner];\r\n    }\r\n\r\n    /**\r\n     * @dev Private function to add a token to this extension's ownership-tracking data structures.\r\n     * @param to address representing the new owner of the given token ID\r\n     * @param tokenId uint256 ID of the token to be added to the tokens list of the given address\r\n     */\r\n    function _addTokenToOwnerEnumeration(address to, uint256 tokenId) private {\r\n        _ownedTokensIndex[tokenId] = _ownedTokens[to].length;\r\n        _ownedTokens[to].push(tokenId);\r\n    }\r\n\r\n    /**\r\n     * @dev Private function to add a token to this extension's token tracking data structures.\r\n     * @param tokenId uint256 ID of the token to be added to the tokens list\r\n     */\r\n    function _addTokenToAllTokensEnumeration(uint256 tokenId) private {\r\n        _allTokensIndex[tokenId] = _allTokens.length;\r\n        _allTokens.push(tokenId);\r\n    }\r\n\r\n    /**\r\n     * @dev Private function to remove a token from this extension's ownership-tracking data structures. Note that\r\n     * while the token is not assigned a new owner, the _ownedTokensIndex mapping is _not_ updated: this allows for\r\n     * gas optimizations e.g. when performing a transfer operation (avoiding double writes).\r\n     * This has O(1) time complexity, but alters the order of the _ownedTokens array.\r\n     * @param from address representing the previous owner of the given token ID\r\n     * @param tokenId uint256 ID of the token to be removed from the tokens list of the given address\r\n     */\r\n    function _removeTokenFromOwnerEnumeration(address from, uint256 tokenId) private {\r\n        // To prevent a gap in from's tokens array, we store the last token in the index of the token to delete, and\r\n        // then delete the last slot (swap and pop).\r\n\r\n        uint256 lastTokenIndex = _ownedTokens[from].length.sub(1);\r\n        uint256 tokenIndex = _ownedTokensIndex[tokenId];\r\n\r\n        // When the token to delete is the last token, the swap operation is unnecessary\r\n        if (tokenIndex != lastTokenIndex) {\r\n            uint256 lastTokenId = _ownedTokens[from][lastTokenIndex];\r\n\r\n            _ownedTokens[from][tokenIndex] = lastTokenId; // Move the last token to the slot of the to-delete token\r\n            _ownedTokensIndex[lastTokenId] = tokenIndex; // Update the moved token's index\r\n        }\r\n\r\n        // This also deletes the contents at the last position of the array\r\n        _ownedTokens[from].length--;\r\n\r\n        // Note that _ownedTokensIndex[tokenId] hasn't been cleared: it still points to the old slot (now occupied by\r\n        // lastTokenId, or just over the end of the array if the token was the last one).\r\n    }\r\n\r\n    /**\r\n     * @dev Private function to remove a token from this extension's token tracking data structures.\r\n     * This has O(1) time complexity, but alters the order of the _allTokens array.\r\n     * @param tokenId uint256 ID of the token to be removed from the tokens list\r\n     */\r\n    function _removeTokenFromAllTokensEnumeration(uint256 tokenId) private {\r\n        // To prevent a gap in the tokens array, we store the last token in the index of the token to delete, and\r\n        // then delete the last slot (swap and pop).\r\n\r\n        uint256 lastTokenIndex = _allTokens.length.sub(1);\r\n        uint256 tokenIndex = _allTokensIndex[tokenId];\r\n\r\n        // When the token to delete is the last token, the swap operation is unnecessary. However, since this occurs so\r\n        // rarely (when the last minted token is burnt) that we still do the swap here to avoid the gas cost of adding\r\n        // an 'if' statement (like in _removeTokenFromOwnerEnumeration)\r\n        uint256 lastTokenId = _allTokens[lastTokenIndex];\r\n\r\n        _allTokens[tokenIndex] = lastTokenId; // Move the last token to the slot of the to-delete token\r\n        _allTokensIndex[lastTokenId] = tokenIndex; // Update the moved token's index\r\n\r\n        // This also deletes the contents at the last position of the array\r\n        _allTokens.length--;\r\n        _allTokensIndex[tokenId] = 0;\r\n    }\r\n}\r\n\r\ncontract ERC721Metadata is ERC721Enumerable, usingOraclize {\r\n    \r\n    // TODO: Create private vars for token _name, _symbol, and _baseTokenURI (string)\r\n    string private _name;\r\n    string private _symbol;\r\n    string private _baseTokenURI;\r\n\r\n    // TODO: create private mapping of tokenId's to token uri's called '_tokenURIs'\r\n    mapping(uint256 => string) private _tokenURIs;\r\n\r\n    bytes4 private constant _INTERFACE_ID_ERC721_METADATA = 0x5b5e139f;\r\n    /*\r\n     * 0x5b5e139f ===\r\n     *     bytes4(keccak256('name()')) ^\r\n     *     bytes4(keccak256('symbol()')) ^\r\n     *     bytes4(keccak256('tokenURI(uint256)'))\r\n     */\r\n\r\n\r\n    constructor (string memory name, string memory symbol, string memory baseTokenURI) public {\r\n        // TODO: set instance var values\r\n        _name = name;\r\n        _symbol = symbol;\r\n        _baseTokenURI = baseTokenURI;\r\n        _registerInterface(_INTERFACE_ID_ERC721_METADATA);\r\n    }\r\n\r\n    // TODO: create external getter functions for name, symbol, and baseTokenURI\r\n    function name() external view returns (string memory) {\r\n        return _name;\r\n    }\r\n    function symbol() external view returns (string memory) {\r\n        return _symbol;\r\n    }\r\n    function baseTokenURI() external view returns (string memory) {\r\n        return _baseTokenURI;\r\n    }\r\n\r\n\r\n    function tokenURI(uint256 tokenId) external view returns (string memory) {\r\n        require(_exists(tokenId));\r\n        return _tokenURIs[tokenId];\r\n    }\r\n\r\n\r\n    // TODO: Create an internal function to set the tokenURI of a specified tokenId\r\n    // It should be the _baseTokenURI + the tokenId in string form\r\n    // TIP #1: use strConcat() from the imported oraclizeAPI lib to set the complete token URI\r\n    // TIP #2: you can also use uint2str() to convert a uint to a string\r\n        // see https://github.com/oraclize/ethereum-api/blob/master/oraclizeAPI_0.5.sol for strConcat()\r\n    // require the token exists before setting\r\n    function _setTokenURI(uint256 tokenId) internal {\r\n        require(_exists(tokenId));\r\n        _tokenURIs[tokenId] = strConcat(_baseTokenURI, uint2str(tokenId));\r\n    }\r\n\r\n}\r\n\r\n//  TODO's: Create CustomERC721Token contract that inherits from the ERC721Metadata contract. You can name this contract as you please\r\n//  1) Pass in appropriate values for the inherited ERC721Metadata contract\r\n//      - make the base token uri: https://s3-us-west-2.amazonaws.com/udacity-blockchain/capstone/\r\n//  2) create a public mint() that does the following:\r\n//      -can only be executed by the contract owner\r\n//      -takes in a 'to' address, tokenId, and tokenURI as parameters\r\n//      -returns a true boolean upon completion of the function\r\n//      -calls the superclass mint and setTokenURI functions\r\n\r\ncontract ERC721Mintable is ERC721Metadata{\r\n    string private _name = \"EBoma\";\r\n    string private _symbol = \"EBM\";\r\n    string private _baseTokenCustomURI = \"https://s3-us-west-2.amazonaws.com/udacity-blockchain/capstone/\";\r\n\r\n    constructor () ERC721Metadata(_name, _symbol, _baseTokenCustomURI) public {\r\n    }\r\n\r\n    function mint(address to, uint256 tokenId) public onlyOwner returns (bool ){\r\n        super._mint(to, tokenId);\r\n        super._setTokenURI(tokenId);\r\n        return true;\r\n    }\r\n}",
  "sourcePath": "D:\\repo\\blockchain_real_state_marketplace\\contracts\\ERC721Mintable.sol",
  "compiler": {
    "name": "solc",
    "version": "0.5.0+commit.1d4f565a.Emscripten.clang"
  },
  "schemaVersion": "3.0.8",
  "updatedAt": "2019-05-02T01:46:38.230Z",
  "devdoc": {
    "methods": {
      "isApprovedForAll(address,address)": {
        "details": "Tells whether an operator is approved by a given owner\r",
        "params": {
          "operator": "operator address which you want to query the approval of\r",
          "owner": "owner address which you want to query the approval of\r"
        },
        "return": "bool whether the given operator is approved by the given owner\r"
      },
      "setApprovalForAll(address,bool)": {
        "details": "Sets or unsets the approval of a given operator\r An operator is allowed to transfer all tokens of the sender on their behalf\r",
        "params": {
          "approved": "representing the status of the approval to be set\r",
          "to": "operator address to set the approval\r"
        }
      },
      "supportsInterface(bytes4)": {
        "details": "implement supportsInterface(bytes4) using a lookup table\r"
      },
      "tokenByIndex(uint256)": {
        "details": "Gets the token ID at a given index of all the tokens in this contract\r Reverts if the index is greater or equal to the total number of tokens\r",
        "params": {
          "index": "uint256 representing the index to be accessed of the tokens list\r"
        },
        "return": "uint256 token ID at the given index of the tokens list\r"
      },
      "tokenOfOwnerByIndex(address,uint256)": {
        "details": "Gets the token ID at a given index of the tokens list of the requested owner\r",
        "params": {
          "index": "uint256 representing the index to be accessed of the requested tokens list\r",
          "owner": "address owning the tokens list to be accessed\r"
        },
        "return": "uint256 token ID at the given index of the tokens list owned by the requested address\r"
      },
      "totalSupply()": {
        "details": "Gets the total amount of tokens stored by the contract\r",
        "return": "uint256 representing the total amount of tokens\r"
      },
      "onERC721Received(address,address,uint256,bytes)": {
        "details": "The ERC721 smart contract calls this function on the recipient after a `safeTransfer`. This function MUST return the function selector, otherwise the caller will revert the transaction. The selector to be returned can be obtained as `this.onERC721Received.selector`. This function MAY throw to revert and reject the transfer. Note: the ERC721 contract address is always the message sender.",
        "params": {
          "data": "Additional data with no specified format",
          "from": "The address which previously owned the token",
          "operator": "The address which called `safeTransferFrom` function",
          "tokenId": "The NFT identifier which is being transferred"
        },
        "return": "bytes4 `bytes4(keccak256(\"onERC721Received(address,address,uint256,bytes)\"))`"
      },
      "owner()": {
        "return": "the address of the owner.\r"
      },
      "transferOwnership(address)": {
        "details": "Allows the current owner to transfer control of the contract to a newOwner.\r",
        "params": {
          "newOwner": "The address to transfer ownership to.\r"
        }
      }
    }
  },
  "userdoc": {
    "methods": {
      "isOwner()": {
        "notice": "Check if the calling address is the owner of the contract"
      },
      "onERC721Received(address,address,uint256,bytes)": {
        "notice": "Handle the receipt of an NFT"
      }
    }
  }
}