{
  "contractName": "SolnSquareVerifier",
  "abi": [
    {
      "constant": true,
      "inputs": [
        {
          "name": "interfaceId",
          "type": "bytes4"
        }
      ],
      "name": "supportsInterface",
      "outputs": [
        {
          "name": "",
          "type": "bool"
        }
      ],
      "payable": false,
      "stateMutability": "view",
      "type": "function"
    },
    {
      "constant": true,
      "inputs": [
        {
          "name": "tokenId",
          "type": "uint256"
        }
      ],
      "name": "name",
      "outputs": [
        {
          "name": "",
          "type": "string"
        }
      ],
      "payable": false,
      "stateMutability": "view",
      "type": "function"
    },
    {
      "constant": true,
      "inputs": [
        {
          "name": "tokenId",
          "type": "uint256"
        },
        {
          "name": "tokenId",
          "type": "uint256"
        }
      ],
      "name": "getApproved",
      "outputs": [
        {
          "name": "",
          "type": "address"
        }
      ],
      "payable": false,
      "stateMutability": "view",
      "type": "function"
    },
    {
      "constant": false,
      "inputs": [
        {
          "name": "to",
          "type": "address"
        },
        {
          "name": "tokenId",
          "type": "uint256"
        }
      ],
      "name": "approve",
      "outputs": [
        {
          "name": "",
          "type": "string"
        }
      ],
      "payable": false,
      "stateMutability": "nonpayable",
      "type": "function"
    },
    {
      "constant": true,
      "inputs": [
        {
          "name": "operator",
          "type": "address"
        },
        {
          "name": "from",
          "type": "address"
        },
        {
          "name": "tokenId",
          "type": "uint256"
        },
        {
          "name": "data",
          "type": "bytes"
        }
      ],
      "name": "totalSupply",
      "outputs": [
        {
          "name": "",
          "type": "uint256"
        }
      ],
      "payable": false,
      "stateMutability": "view",
      "type": "function"
    },
    {
      "constant": false,
      "inputs": [
        {
          "name": "from",
          "type": "address"
        },
        {
          "name": "to",
          "type": "address"
        },
        {
          "name": "tokenId",
          "type": "uint256"
        }
      ],
      "name": "transferFrom",
      "outputs": [
        {
          "name": "",
          "type": "string"
        }
      ],
      "payable": false,
      "stateMutability": "nonpayable",
      "type": "function"
    },
    {
      "constant": true,
      "inputs": [
        {
          "name": "_myid",
          "type": "bytes32"
        },
        {
          "name": "_result",
          "type": "string"
        },
        {
          "name": "tokenId",
          "type": "uint256"
        }
      ],
      "name": "__callback",
      "outputs": [
        {
          "name": "",
          "type": "uint256"
        }
      ],
      "payable": false,
      "stateMutability": "pure",
      "type": "function"
    },
    {
      "constant": true,
      "inputs": [
        {
          "name": "owner",
          "type": "address"
        },
        {
          "name": "index",
          "type": "uint256"
        },
        {
          "name": "tokenId",
          "type": "uint256"
        }
      ],
      "name": "tokenOfOwnerByIndex",
      "outputs": [
        {
          "name": "",
          "type": "uint256"
        }
      ],
      "payable": false,
      "stateMutability": "view",
      "type": "function"
    },
    {
      "constant": true,
      "inputs": [
        {
          "name": "_myid",
          "type": "bytes32"
        },
        {
          "name": "_result",
          "type": "string"
        },
        {
          "name": "_proof",
          "type": "bytes"
        }
      ],
      "name": "__callback",
      "outputs": [
        {
          "name": "",
          "type": "uint256"
        },
        {
          "name": "solutionsAddress",
          "type": "address"
        },
        {
          "name": "image",
          "type": "string"
        }
      ],
      "payable": false,
      "stateMutability": "pure",
      "type": "function"
    },
    {
      "constant": false,
      "inputs": [
        {
          "name": "owner",
          "type": "address"
        },
        {
          "name": "index",
          "type": "uint256"
        },
        {
          "name": "_proof",
          "type": "bytes"
        }
      ],
      "name": "unpause",
      "outputs": [
        {
          "name": "",
          "type": "uint256"
        }
      ],
      "payable": false,
      "stateMutability": "nonpayable",
      "type": "function"
    },
    {
      "constant": false,
      "inputs": [
        {
          "name": "to",
          "type": "address"
        },
        {
          "name": "tokenId",
          "type": "uint256"
        },
        {
          "name": "_proof",
          "type": "bytes"
        }
      ],
      "name": "mint",
      "outputs": [
        {
          "name": "",
          "type": "bool"
        }
      ],
      "payable": false,
      "stateMutability": "nonpayable",
      "type": "function"
    },
    {
      "constant": false,
      "inputs": [
        {
          "name": "from",
          "type": "address"
        },
        {
          "name": "to",
          "type": "address"
        },
        {
          "name": "tokenId",
          "type": "uint256"
        }
      ],
      "name": "safeTransferFrom",
      "outputs": [
        {
          "name": "",
          "type": "bool"
        }
      ],
      "payable": false,
      "stateMutability": "nonpayable",
      "type": "function"
    },
    {
      "constant": true,
      "inputs": [
        {
          "name": "index",
          "type": "uint256"
        },
        {
          "name": "to",
          "type": "address"
        },
        {
          "name": "tokenId",
          "type": "uint256"
        }
      ],
      "name": "tokenByIndex",
      "outputs": [
        {
          "name": "",
          "type": "uint256"
        }
      ],
      "payable": false,
      "stateMutability": "view",
      "type": "function"
    },
    {
      "constant": false,
      "inputs": [
        {
          "name": "a",
          "type": "uint256[2]"
        },
        {
          "name": "b",
          "type": "uint256[2][2]"
        },
        {
          "name": "c",
          "type": "uint256[2]"
        },
        {
          "name": "input",
          "type": "uint256[2]"
        }
      ],
      "name": "verifyTx",
      "outputs": [
        {
          "name": "r",
          "type": "bool"
        }
      ],
      "payable": false,
      "stateMutability": "nonpayable",
      "type": "function"
    },
    {
      "constant": true,
      "inputs": [
        {
          "name": "tokenId",
          "type": "uint256"
        },
        {
          "name": "b",
          "type": "uint256[2][2]"
        },
        {
          "name": "c",
          "type": "uint256[2]"
        },
        {
          "name": "input",
          "type": "uint256[2]"
        }
      ],
      "name": "ownerOf",
      "outputs": [
        {
          "name": "",
          "type": "address"
        }
      ],
      "payable": false,
      "stateMutability": "view",
      "type": "function"
    },
    {
      "constant": true,
      "inputs": [
        {
          "name": "owner",
          "type": "address"
        }
      ],
      "name": "balanceOf",
      "outputs": [
        {
          "name": "",
          "type": "uint256"
        }
      ],
      "payable": false,
      "stateMutability": "view",
      "type": "function"
    },
    {
      "constant": false,
      "inputs": [
        {
          "name": "owner",
          "type": "address"
        }
      ],
      "name": "pause",
      "outputs": [
        {
          "name": "",
          "type": "uint256"
        }
      ],
      "payable": false,
      "stateMutability": "nonpayable",
      "type": "function"
    },
    {
      "constant": true,
      "inputs": [
        {
          "name": "to",
          "type": "address"
        },
        {
          "name": "approved",
          "type": "bool"
        }
      ],
      "name": "isOwner",
      "outputs": [
        {
          "name": "",
          "type": "bool"
        }
      ],
      "payable": false,
      "stateMutability": "view",
      "type": "function"
    },
    {
      "constant": true,
      "inputs": [
        {
          "name": "to",
          "type": "address"
        },
        {
          "name": "approved",
          "type": "bool"
        }
      ],
      "name": "symbol",
      "outputs": [
        {
          "name": "",
          "type": "string"
        },
        {
          "name": "solutionsAddress",
          "type": "address"
        }
      ],
      "payable": false,
      "stateMutability": "view",
      "type": "function"
    },
    {
      "constant": false,
      "inputs": [
        {
          "name": "to",
          "type": "address"
        },
        {
          "name": "approved",
          "type": "bool"
        },
        {
          "name": "tokenId",
          "type": "uint256"
        },
        {
          "name": "_data",
          "type": "bytes"
        }
      ],
      "name": "setApprovalForAll",
      "outputs": [
        {
          "name": "index",
          "type": "uint256"
        },
        {
          "name": "solutionsAddress",
          "type": "address"
        }
      ],
      "payable": false,
      "stateMutability": "nonpayable",
      "type": "function"
    },
    {
      "constant": true,
      "inputs": [
        {
          "name": "",
          "type": "bytes32"
        },
        {
          "name": "to",
          "type": "address"
        },
        {
          "name": "tokenId",
          "type": "uint256"
        },
        {
          "name": "_data",
          "type": "bytes"
        }
      ],
      "name": "solutionsSubmitted",
      "outputs": [
        {
          "name": "index",
          "type": "uint256"
        },
        {
          "name": "solutionsAddress",
          "type": "address"
        }
      ],
      "payable": false,
      "stateMutability": "view",
      "type": "function"
    },
    {
      "constant": false,
      "inputs": [
        {
          "name": "from",
          "type": "address"
        },
        {
          "name": "to",
          "type": "address"
        },
        {
          "name": "tokenId",
          "type": "uint256"
        },
        {
          "name": "_data",
          "type": "bytes"
        }
      ],
      "name": "safeTransferFrom",
      "outputs": [
        {
          "name": "",
          "type": "string"
        },
        {
          "name": "solutionsAddress",
          "type": "address"
        }
      ],
      "payable": false,
      "stateMutability": "nonpayable",
      "type": "function"
    },
    {
      "constant": true,
      "inputs": [
        {
          "name": "tokenId",
          "type": "uint256"
        },
        {
          "name": "to",
          "type": "address"
        },
        {
          "name": "tokenId",
          "type": "uint256"
        },
        {
          "name": "_data",
          "type": "bytes"
        }
      ],
      "name": "tokenURI",
      "outputs": [
        {
          "name": "",
          "type": "string"
        }
      ],
      "payable": false,
      "stateMutability": "view",
      "type": "function"
    },
    {
      "constant": true,
      "inputs": [
        {
          "name": "tokenId",
          "type": "uint256"
        },
        {
          "name": "operator",
          "type": "address"
        }
      ],
      "name": "baseTokenURI",
      "outputs": [
        {
          "name": "",
          "type": "string"
        }
      ],
      "payable": false,
      "stateMutability": "view",
      "type": "function"
    },
    {
      "constant": true,
      "inputs": [
        {
          "name": "owner",
          "type": "address"
        },
        {
          "name": "operator",
          "type": "address"
        }
      ],
      "name": "isApprovedForAll",
      "outputs": [
        {
          "name": "",
          "type": "bool"
        }
      ],
      "payable": false,
      "stateMutability": "view",
      "type": "function"
    },
    {
      "anonymous": false,
      "inputs": [
        {
          "indexed": false,
          "name": "newOwner",
          "type": "address"
        },
        {
          "name": "",
          "type": "uint256"
        },
        {
          "name": "",
          "type": "bytes"
        }
      ],
      "name": "transferOwnership",
      "type": "function",
      "payable": false,
      "stateMutability": "nonpayable",
      "constant": false,
      "outputs": [
        {
          "name": "",
          "type": "bytes4"
        }
      ]
    },
    {
      "anonymous": false,
      "inputs": [
        {
          "indexed": false,
          "name": "_verifierContract",
          "type": "address"
        },
        {
          "indexed": true,
          "name": "operator",
          "type": "address"
        },
        {
          "indexed": true,
          "name": "tokenId",
          "type": "uint256"
        }
      ],
      "name": "transferOwnership",
      "type": "constructor",
      "payable": false,
      "stateMutability": "nonpayable",
      "constant": false,
      "outputs": [
        {
          "name": "",
          "type": "bool"
        }
      ]
    },
    {
      "anonymous": false,
      "inputs": [
        {
          "indexed": false,
          "name": "_solution",
          "type": "address"
        },
        {
          "indexed": true,
          "name": "",
          "type": "uint256"
        },
        {
          "indexed": true,
          "name": "",
          "type": "bytes"
        }
      ],
      "name": "solutionAdded",
      "type": "event",
      "payable": false,
      "stateMutability": "view",
      "constant": true,
      "outputs": [
        {
          "name": "",
          "type": "address"
        }
      ]
    },
    {
      "anonymous": false,
      "inputs": [
        {
          "indexed": false,
          "name": "s",
          "type": "string"
        },
        {
          "indexed": true,
          "name": "to",
          "type": "address"
        },
        {
          "indexed": true,
          "name": "tokenId",
          "type": "uint256"
        }
      ],
      "name": "Verified",
      "type": "event",
      "constant": false,
      "outputs": [
        {
          "name": "",
          "type": "address"
        }
      ],
      "payable": false,
      "stateMutability": "nonpayable"
    },
    {
      "anonymous": false,
      "inputs": [
        {
          "indexed": true,
          "name": "from",
          "type": "address"
        },
        {
          "indexed": true,
          "name": "to",
          "type": "address"
        },
        {
          "indexed": true,
          "name": "tokenId",
          "type": "uint256"
        }
      ],
      "name": "Transfer",
      "type": "event",
      "payable": false,
      "stateMutability": "view",
      "constant": true,
      "outputs": [
        {
          "name": "",
          "type": "address"
        }
      ]
    },
    {
      "anonymous": false,
      "inputs": [
        {
          "indexed": true,
          "name": "owner",
          "type": "address"
        },
        {
          "indexed": true,
          "name": "approved",
          "type": "address"
        },
        {
          "indexed": true,
          "name": "tokenId",
          "type": "uint256"
        }
      ],
      "name": "Approval",
      "type": "event",
      "payable": false,
      "stateMutability": "nonpayable"
    },
    {
      "anonymous": false,
      "inputs": [
        {
          "indexed": true,
          "name": "owner",
          "type": "address"
        },
        {
          "indexed": true,
          "name": "operator",
          "type": "address"
        },
        {
          "indexed": false,
          "name": "approved",
          "type": "bool"
        }
      ],
      "name": "ApprovalForAll",
      "type": "event"
    },
    {
      "constant": false,
      "inputs": [
        {
          "name": "account",
          "type": "address",
          "indexed": false
        },
        {
          "indexed": true,
          "name": "approved",
          "type": "address"
        },
        {
          "name": "tokenId",
          "type": "uint256",
          "indexed": true
        },
        {
          "name": "A_p",
          "type": "uint256[2]"
        },
        {
          "name": "B",
          "type": "uint256[2][2]"
        },
        {
          "name": "B_p",
          "type": "uint256[2]"
        },
        {
          "name": "C",
          "type": "uint256[2]"
        },
        {
          "name": "C_p",
          "type": "uint256[2]"
        },
        {
          "name": "H",
          "type": "uint256[2]"
        },
        {
          "name": "K",
          "type": "uint256[2]"
        },
        {
          "name": "input",
          "type": "uint256[2]"
        }
      ],
      "name": "Paused",
      "outputs": [],
      "payable": false,
      "stateMutability": "nonpayable",
      "type": "event",
      "anonymous": false
    },
    {
      "constant": true,
      "inputs": [
        {
          "name": "account",
          "type": "address",
          "indexed": false
        },
        {
          "name": "operator",
          "type": "address",
          "indexed": true
        },
        {
          "indexed": false,
          "name": "approved",
          "type": "bool"
        }
      ],
      "name": "Unpaused",
      "outputs": [
        {
          "name": "",
          "type": "bool"
        }
      ],
      "payable": false,
      "stateMutability": "view",
      "type": "event",
      "anonymous": false
    },
    {
      "constant": false,
      "inputs": [
        {
          "name": "previousOwner",
          "type": "address",
          "indexed": true
        },
        {
          "name": "newOwner",
          "type": "address",
          "indexed": true
        },
        {
          "name": "tokenId",
          "type": "uint256",
          "indexed": true
        },
        {
          "name": "B",
          "type": "uint256[2][2]"
        },
        {
          "name": "C",
          "type": "uint256[2]"
        },
        {
          "name": "input",
          "type": "uint256[2]"
        },
        {
          "name": "C",
          "type": "uint256[2]"
        },
        {
          "name": "C_p",
          "type": "uint256[2]"
        },
        {
          "name": "H",
          "type": "uint256[2]"
        },
        {
          "name": "K",
          "type": "uint256[2]"
        },
        {
          "name": "input",
          "type": "uint256[2]"
        }
      ],
      "name": "OwnershipTransferred",
      "outputs": [
        {
          "name": "",
          "type": "bool"
        }
      ],
      "payable": false,
      "stateMutability": "nonpayable",
      "type": "event",
      "anonymous": false
    },
    {
      "constant": false,
      "inputs": [
        {
          "name": "_solutionAddress",
          "type": "address",
          "indexed": false
        },
        {
          "name": "_id",
          "type": "uint256",
          "indexed": true
        },
        {
          "name": "A",
          "type": "uint256[2]",
          "indexed": false
        },
        {
          "name": "B",
          "type": "uint256[2][2]"
        },
        {
          "name": "C",
          "type": "uint256[2]"
        },
        {
          "name": "input",
          "type": "uint256[2]"
        }
      ],
      "name": "addSolution",
      "outputs": [
        {
          "name": "",
          "type": "bool"
        }
      ],
      "payable": false,
      "stateMutability": "nonpayable",
      "type": "function",
      "anonymous": false
    },
    {
      "constant": true,
      "inputs": [
        {
          "name": "key",
          "type": "bytes32",
          "indexed": true
        },
        {
          "name": "newOwner",
          "type": "address",
          "indexed": true
        },
        {
          "name": "A",
          "type": "uint256[2]"
        },
        {
          "name": "B",
          "type": "uint256[2][2]"
        },
        {
          "name": "C",
          "type": "uint256[2]"
        },
        {
          "name": "input",
          "type": "uint256[2]"
        }
      ],
      "name": "isSolutionUnique",
      "outputs": [
        {
          "name": "",
          "type": "bool"
        }
      ],
      "payable": false,
      "stateMutability": "view",
      "type": "function",
      "anonymous": false
    },
    {
      "constant": false,
      "inputs": [
        {
          "name": "_to",
          "type": "address",
          "indexed": false
        },
        {
          "name": "tokenSuplly",
          "type": "uint256",
          "indexed": true
        },
        {
          "name": "A",
          "type": "uint256[2]"
        },
        {
          "name": "B",
          "type": "uint256[2][2]"
        },
        {
          "name": "C",
          "type": "uint256[2]"
        },
        {
          "name": "input",
          "type": "uint256[2]"
        }
      ],
      "name": "mintNewNFT",
      "outputs": [
        {
          "name": "",
          "type": "bool"
        }
      ],
      "payable": false,
      "stateMutability": "nonpayable",
      "type": "function",
      "anonymous": false
    },
    {
      "constant": true,
      "inputs": [
        {
          "name": "key",
          "type": "bytes32",
          "indexed": true
        },
        {
          "name": "newOwner",
          "type": "address",
          "indexed": true
        },
        {
          "name": "A",
          "type": "uint256[2]"
        },
        {
          "name": "B",
          "type": "uint256[2][2]"
        },
        {
          "name": "C",
          "type": "uint256[2]"
        },
        {
          "name": "input",
          "type": "uint256[2]"
        }
      ],
      "name": "isSolutionUnique",
      "outputs": [
        {
          "name": "",
          "type": "bool"
        }
      ],
      "payable": false,
      "stateMutability": "view",
      "type": "function",
      "anonymous": false
    },
    {
      "constant": false,
      "inputs": [
        {
          "name": "_to",
          "type": "address"
        },
        {
          "name": "tokenSuplly",
          "type": "uint256"
        },
        {
          "name": "A",
          "type": "uint256[2]"
        },
        {
          "name": "B",
          "type": "uint256[2][2]"
        },
        {
          "name": "C",
          "type": "uint256[2]"
        },
        {
          "name": "input",
          "type": "uint256[2]"
        }
      ],
      "name": "mintNewNFT",
      "outputs": [
        {
          "name": "",
          "type": "bool"
        }
      ],
      "payable": false,
      "stateMutability": "nonpayable",
      "type": "function"
    },
    {
      "constant": true,
      "inputs": [
        {
          "name": "key",
          "type": "bytes32"
        },
        {
          "name": "tokenSuplly",
          "type": "uint256"
        },
        {
          "name": "A",
          "type": "uint256[2]"
        },
        {
          "name": "B",
          "type": "uint256[2][2]"
        },
        {
          "name": "C",
          "type": "uint256[2]"
        },
        {
          "name": "input",
          "type": "uint256[2]"
        }
      ],
      "name": "isSolutionUnique",
      "outputs": [
        {
          "name": "",
          "type": "bool"
        }
      ],
      "payable": false,
      "stateMutability": "view",
      "type": "function"
    },
    {
      "constant": false,
      "inputs": [
        {
          "name": "_to",
          "type": "address"
        },
        {
          "name": "tokenSuplly",
          "type": "uint256"
        },
        {
          "name": "A",
          "type": "uint256[2]"
        },
        {
          "name": "B",
          "type": "uint256[2][2]"
        },
        {
          "name": "C",
          "type": "uint256[2]"
        },
        {
          "name": "input",
          "type": "uint256[2]"
        }
      ],
      "name": "mintNewNFT",
      "outputs": [],
      "payable": false,
      "stateMutability": "nonpayable",
      "type": "function"
    }
  ],
  "bytecode": "0x60806040526040805190810160405280600581526020017f45426f6d61000000000000000000000000000000000000000000000000000000815250601390805190602001906200005192919062000650565b506040805190810160405280600381526020017f45424d0000000000000000000000000000000000000000000000000000000000815250601490805190602001906200009f92919062000650565b50606060405190810160405280603f81526020017f68747470733a2f2f73332d75732d776573742d322e616d617a6f6e6177732e6381526020017f6f6d2f756461636974792d626c6f636b636861696e2f63617073746f6e652f00815250601590805190602001906200011492919062000650565b503480156200012257600080fd5b5060405160208062004dcd833981018060405260208110156200014457600080fd5b810190808051906020019092919050505060138054600181600116156101000203166002900480601f016020809104026020016040519081016040528092919081815260200182805460018160011615610100020316600290048015620001ef5780601f10620001c357610100808354040283529160200191620001ef565b820191906000526020600020905b815481529060010190602001808311620001d157829003601f168201915b505050505060148054600181600116156101000203166002900480601f0160208091040260200160405190810160405280929190818152602001828054600181600116156101000203166002900480156200028e5780601f1062000262576101008083540402835291602001916200028e565b820191906000526020600020905b8154815290600101906020018083116200027057829003601f168201915b505050505060158054600181600116156101000203166002900480601f0160208091040260200160405190810160405280929190818152602001828054600181600116156101000203166002900480156200032d5780601f1062000301576101008083540402835291602001916200032d565b820191906000526020600020905b8154815290600101906020018083116200030f57829003601f168201915b5050505050336000806101000a81548173ffffffffffffffffffffffffffffffffffffffff021916908373ffffffffffffffffffffffffffffffffffffffff1602179055506000809054906101000a900473ffffffffffffffffffffffffffffffffffffffff1673ffffffffffffffffffffffffffffffffffffffff16600073ffffffffffffffffffffffffffffffffffffffff167f8be0079c531659141344cd1fd0a4f28419497f9722a3daafe3b4186f6b6457e060405160405180910390a360008060146101000a81548160ff021916908315150217905550620004456301ffc9a77c01000000000000000000000000000000000000000000000000000000000262000592640100000000026401000000009004565b620004826380ac58cd7c01000000000000000000000000000000000000000000000000000000000262000592640100000000026401000000009004565b620004bf63780e9d637c01000000000000000000000000000000000000000000000000000000000262000592640100000000026401000000009004565b82600f9080519060200190620004d792919062000650565b508160109080519060200190620004f092919062000650565b5080601190805190602001906200050992919062000650565b5062000547635b5e139f7c01000000000000000000000000000000000000000000000000000000000262000592640100000000026401000000009004565b50505080601660006101000a81548173ffffffffffffffffffffffffffffffffffffffff021916908373ffffffffffffffffffffffffffffffffffffffff16021790555050620006ff565b63ffffffff7c010000000000000000000000000000000000000000000000000000000002817bffffffffffffffffffffffffffffffffffffffffffffffffffffffff191614151515620005e457600080fd5b6001806000837bffffffffffffffffffffffffffffffffffffffffffffffffffffffff19167bffffffffffffffffffffffffffffffffffffffffffffffffffffffff1916815260200190815260200160002060006101000a81548160ff02191690831515021790555050565b828054600181600116156101000203166002900490600052602060002090601f016020900481019282601f106200069357805160ff1916838001178555620006c4565b82800160010185558215620006c4579182015b82811115620006c3578251825591602001919060010190620006a6565b5b509050620006d39190620006d7565b5090565b620006fc91905b80821115620006f8576000816000905550600101620006de565b5090565b90565b6146be806200070f6000396000f3fe608060405260043610610175576000357c0100000000000000000000000000000000000000000000000000000000900463ffffffff16806301ffc9a71461017a57806306fdde03146101ec578063081812fc1461027c578063095ea7b3146102f757806318160ddd1461035257806323b872dd1461037d57806327dc297e146103f85780632f745c59146104ca57806338bbfa50146105395780633eec14da146106a25780633f4ba83a1461083a57806340c10f191461085157806342842e0e146108c45780634f6ccce71461093f578063621e9ec01461098e5780636352211e14610b145780636aa69d4e14610b8f57806370a0823114610d275780638456cb5914610d8c5780638f32d59b14610da357806395d89b4114610dd2578063a22cb46514610e62578063a2c4740b14610ebf578063b88d4fde14610f41578063c87b56dd14611053578063d547cfb714611107578063db1de3b714611197578063e985e9c5146111ea578063f2fde38b14611273575b600080fd5b34801561018657600080fd5b506101d26004803603602081101561019d57600080fd5b8101908080357bffffffffffffffffffffffffffffffffffffffffffffffffffffffff191690602001909291905050506112c4565b604051808215151515815260200191505060405180910390f35b3480156101f857600080fd5b5061020161132c565b6040518080602001828103825283818151815260200191508051906020019080838360005b83811015610241578082015181840152602081019050610226565b50505050905090810190601f16801561026e5780820380516001836020036101000a031916815260200191505b509250505060405180910390f35b34801561028857600080fd5b506102b56004803603602081101561029f57600080fd5b81019080803590602001909291905050506113ce565b604051808273ffffffffffffffffffffffffffffffffffffffff1673ffffffffffffffffffffffffffffffffffffffff16815260200191505060405180910390f35b34801561030357600080fd5b506103506004803603604081101561031a57600080fd5b81019080803573ffffffffffffffffffffffffffffffffffffffff1690602001909291908035906020019092919050505061141f565b005b34801561035e57600080fd5b50610367611564565b6040518082815260200191505060405180910390f35b34801561038957600080fd5b506103f6600480360360608110156103a057600080fd5b81019080803573ffffffffffffffffffffffffffffffffffffffff169060200190929190803573ffffffffffffffffffffffffffffffffffffffff16906020019092919080359060200190929190505050611571565b005b34801561040457600080fd5b506104c86004803603604081101561041b57600080fd5b81019080803590602001909291908035906020019064010000000081111561044257600080fd5b82018360208201111561045457600080fd5b8035906020019184600183028401116401000000008311171561047657600080fd5b91908080601f016020809104026020016040519081016040528093929190818152602001838380828437600081840152601f19601f820116905080830192505050505050509192919290505050611596565b005b3480156104d657600080fd5b50610523600480360360408110156104ed57600080fd5b81019080803573ffffffffffffffffffffffffffffffffffffffff169060200190929190803590602001909291905050506115d9565b6040518082815260200191505060405180910390f35b34801561054557600080fd5b506106a06004803603606081101561055c57600080fd5b81019080803590602001909291908035906020019064010000000081111561058357600080fd5b82018360208201111561059557600080fd5b803590602001918460018302840111640100000000831117156105b757600080fd5b91908080601f016020809104026020016040519081016040528093929190818152602001838380828437600081840152601f19601f8201169050808301925050505050505091929192908035906020019064010000000081111561061a57600080fd5b82018360208201111561062c57600080fd5b8035906020019184600183028401116401000000008311171561064e57600080fd5b91908080601f016020809104026020016040519081016040528093929190818152602001838380828437600081840152601f19601f820116905080830192505050505050509192919290505050611650565b005b3480156106ae57600080fd5b5061083860048036036101808110156106c657600080fd5b81019080803573ffffffffffffffffffffffffffffffffffffffff1690602001909291908035906020019092919080604001906002806020026040519081016040528092919082600260200280828437600081840152601f19601f82011690508083019250505050505091929192908060800190600280602002604051908101604052809291906000905b828210156107a5578382604002016002806020026040519081016040528092919082600260200280828437600081840152601f19601f82011690508083019250505050505081526020019060010190610751565b50505050919291929080604001906002806020026040519081016040528092919082600260200280828437600081840152601f19601f820116905080830192505050505050919291929080604001906002806020026040519081016040528092919082600260200280828437600081840152601f19601f8201169050808301925050505050509192919290505050611655565b005b34801561084657600080fd5b5061084f611964565b005b34801561085d57600080fd5b506108aa6004803603604081101561087457600080fd5b81019080803573ffffffffffffffffffffffffffffffffffffffff16906020019092919080359060200190929190505050611a11565b604051808215151515815260200191505060405180910390f35b3480156108d057600080fd5b5061093d600480360360608110156108e757600080fd5b81019080803573ffffffffffffffffffffffffffffffffffffffff169060200190929190803573ffffffffffffffffffffffffffffffffffffffff16906020019092919080359060200190929190505050611a43565b005b34801561094b57600080fd5b506109786004803603602081101561096257600080fd5b8101908080359060200190929190505050611a64565b6040518082815260200191505060405180910390f35b34801561099a57600080fd5b50610afa60048036036101408110156109b257600080fd5b8101908080604001906002806020026040519081016040528092919082600260200280828437600081840152601f19601f82011690508083019250505050505091929192908060800190600280602002604051908101604052809291906000905b82821015610a67578382604002016002806020026040519081016040528092919082600260200280828437600081840152601f19601f82011690508083019250505050505081526020019060010190610a13565b50505050919291929080604001906002806020026040519081016040528092919082600260200280828437600081840152601f19601f820116905080830192505050505050919291929080604001906002806020026040519081016040528092919082600260200280828437600081840152601f19601f8201169050808301925050505050509192919290505050611a9c565b604051808215151515815260200191505060405180910390f35b348015610b2057600080fd5b50610b4d60048036036020811015610b3757600080fd5b8101908080359060200190929190505050611d44565b604051808273ffffffffffffffffffffffffffffffffffffffff1673ffffffffffffffffffffffffffffffffffffffff16815260200191505060405180910390f35b348015610b9b57600080fd5b50610d256004803603610180811015610bb357600080fd5b81019080803573ffffffffffffffffffffffffffffffffffffffff1690602001909291908035906020019092919080604001906002806020026040519081016040528092919082600260200280828437600081840152601f19601f82011690508083019250505050505091929192908060800190600280602002604051908101604052809291906000905b82821015610c92578382604002016002806020026040519081016040528092919082600260200280828437600081840152601f19601f82011690508083019250505050505081526020019060010190610c3e565b50505050919291929080604001906002806020026040519081016040528092919082600260200280828437600081840152601f19601f820116905080830192505050505050919291929080604001906002806020026040519081016040528092919082600260200280828437600081840152601f19601f8201169050808301925050505050509192919290505050611dc2565b005b348015610d3357600080fd5b50610d7660048036036020811015610d4a57600080fd5b81019080803573ffffffffffffffffffffffffffffffffffffffff169060200190929190505050611ffe565b6040518082815260200191505060405180910390f35b348015610d9857600080fd5b50610da1612089565b005b348015610daf57600080fd5b50610db8612138565b604051808215151515815260200191505060405180910390f35b348015610dde57600080fd5b50610de761218f565b6040518080602001828103825283818151815260200191508051906020019080838360005b83811015610e27578082015181840152602081019050610e0c565b50505050905090810190601f168015610e545780820380516001836020036101000a031916815260200191505b509250505060405180910390f35b348015610e6e57600080fd5b50610ebd60048036036040811015610e8557600080fd5b81019080803573ffffffffffffffffffffffffffffffffffffffff169060200190929190803515159060200190929190505050612231565b005b348015610ecb57600080fd5b50610ef860048036036020811015610ee257600080fd5b810190808035906020019092919050505061236d565b604051808381526020018273ffffffffffffffffffffffffffffffffffffffff1673ffffffffffffffffffffffffffffffffffffffff1681526020019250505060405180910390f35b348015610f4d57600080fd5b5061105160048036036080811015610f6457600080fd5b81019080803573ffffffffffffffffffffffffffffffffffffffff169060200190929190803573ffffffffffffffffffffffffffffffffffffffff1690602001909291908035906020019092919080359060200190640100000000811115610fcb57600080fd5b820183602082011115610fdd57600080fd5b80359060200191846001830284011164010000000083111715610fff57600080fd5b91908080601f016020809104026020016040519081016040528093929190818152602001838380828437600081840152601f19601f8201169050808301925050505050505091929192905050506123b1565b005b34801561105f57600080fd5b5061108c6004803603602081101561107657600080fd5b81019080803590602001909291905050506123d9565b6040518080602001828103825283818151815260200191508051906020019080838360005b838110156110cc5780820151818401526020810190506110b1565b50505050905090810190601f1680156110f95780820380516001836020036101000a031916815260200191505b509250505060405180910390f35b34801561111357600080fd5b5061111c6124a2565b6040518080602001828103825283818151815260200191508051906020019080838360005b8381101561115c578082015181840152602081019050611141565b50505050905090810190601f1680156111895780820380516001836020036101000a031916815260200191505b509250505060405180910390f35b3480156111a357600080fd5b506111d0600480360360208110156111ba57600080fd5b8101908080359060200190929190505050612544565b604051808215151515815260200191505060405180910390f35b3480156111f657600080fd5b506112596004803603604081101561120d57600080fd5b81019080803573ffffffffffffffffffffffffffffffffffffffff169060200190929190803573ffffffffffffffffffffffffffffffffffffffff1690602001909291905050506125c5565b604051808215151515815260200191505060405180910390f35b34801561127f57600080fd5b506112c26004803603602081101561129657600080fd5b81019080803573ffffffffffffffffffffffffffffffffffffffff169060200190929190505050612659565b005b600060016000837bffffffffffffffffffffffffffffffffffffffffffffffffffffffff19167bffffffffffffffffffffffffffffffffffffffffffffffffffffffff1916815260200190815260200160002060009054906101000a900460ff169050919050565b6060600f8054600181600116156101000203166002900480601f0160208091040260200160405190810160405280929190818152602001828054600181600116156101000203166002900480156113c45780601f10611399576101008083540402835291602001916113c4565b820191906000526020600020905b8154815290600101906020018083116113a757829003601f168201915b5050505050905090565b60006113d982612678565b15156113e457600080fd5b6003600083815260200190815260200160002060009054906101000a900473ffffffffffffffffffffffffffffffffffffffff169050919050565b600061142a82611d44565b90508073ffffffffffffffffffffffffffffffffffffffff168373ffffffffffffffffffffffffffffffffffffffff161415151561146757600080fd5b8073ffffffffffffffffffffffffffffffffffffffff163373ffffffffffffffffffffffffffffffffffffffff1614806114a757506114a681336125c5565b5b15156114b257600080fd5b826003600084815260200190815260200160002060006101000a81548173ffffffffffffffffffffffffffffffffffffffff021916908373ffffffffffffffffffffffffffffffffffffffff160217905550818373ffffffffffffffffffffffffffffffffffffffff168273ffffffffffffffffffffffffffffffffffffffff167f8c5be1e5ebec7d5bd14f71427d1e84f3dd0314c0f7b2291e5b200ac8c7c3b92560405160405180910390a4505050565b6000600880549050905090565b61157b33826126ea565b151561158657600080fd5b61159183838361277f565b505050565b6115d5828260006040519080825280601f01601f1916602001820160405280156115cf5781602001600182028038833980820191505090505b50611650565b5050565b60006115e483611ffe565b821015156115f157600080fd5b600660008473ffffffffffffffffffffffffffffffffffffffff1673ffffffffffffffffffffffffffffffffffffffff1681526020019081526020016000208281548110151561163d57fe5b9060005260206000200154905092915050565b505050565b6000848484846040516020018085600260200280838360005b8381101561168957808201518184015260208101905061166e565b505050509050018460026000925b818410156116dd5782846020020151600260200280838360005b838110156116cc5780820151818401526020810190506116b1565b505050509050019260010192611697565b9250505083600260200280838360005b838110156117085780820151818401526020810190506116ed565b5050505090500182600260200280838360005b8381101561173657808201518184015260208101905061171b565b5050505090500194505050505060405160208183030381529060405280519060200120905061176481612544565b15156117d8576040517f08c379a00000000000000000000000000000000000000000000000000000000081526004018080602001828103825260188152602001807f536f6c7574696f6e20616c7265616479206578736974732e000000000000000081525060200191505060405180910390fd5b6117e061442d565b60408051908101604052808881526020018973ffffffffffffffffffffffffffffffffffffffff16815250905080601860008481526020019081526020016000206000820151816000015560208201518160010160006101000a81548173ffffffffffffffffffffffffffffffffffffffff021916908373ffffffffffffffffffffffffffffffffffffffff160217905550905050601781908060018154018082558091505090600182039060005260206000209060020201600090919290919091506000820151816000015560208201518160010160006101000a81548173ffffffffffffffffffffffffffffffffffffffff021916908373ffffffffffffffffffffffffffffffffffffffff1602179055505050507fe9670965671257fe1303dd6edc2c949e84c4103d01e2a2c58658b7cd17354dbc88604051808273ffffffffffffffffffffffffffffffffffffffff1673ffffffffffffffffffffffffffffffffffffffff16815260200191505060405180910390a15050505050505050565b61196c612138565b151561197757600080fd5b600060149054906101000a900460ff16151561199257600080fd5b60008060146101000a81548160ff0219169083151502179055507f5db9ee0a495bf2e6ff9c91a7834c1ba4fdd244a5e8aa4e537bd38aeae4b073aa33604051808273ffffffffffffffffffffffffffffffffffffffff1673ffffffffffffffffffffffffffffffffffffffff16815260200191505060405180910390a1565b6000611a1b612138565b1515611a2657600080fd5b611a3083836127a3565b611a39826127c4565b6001905092915050565b611a5f83838360206040519081016040528060008152506123b1565b505050565b6000611a6e611564565b82101515611a7b57600080fd5b600882815481101515611a8a57fe5b90600052602060002001549050919050565b6000611aa661445d565b6040805190810160405280876000600281101515611ac057fe5b60200201518152602001876001600281101515611ad957fe5b6020020151815250816000018190525060408051908101604052806040805190810160405280886000600281101515611b0e57fe5b60200201516000600281101515611b2157fe5b60200201518152602001886000600281101515611b3a57fe5b60200201516001600281101515611b4d57fe5b602002015181525081526020016040805190810160405280886001600281101515611b7457fe5b60200201516000600281101515611b8757fe5b60200201518152602001886001600281101515611ba057fe5b60200201516001600281101515611bb357fe5b602002015181525081525081602001819052506040805190810160405280856000600281101515611be057fe5b60200201518152602001856001600281101515611bf957fe5b6020020151815250816040018190525060606002604051908082528060200260200182016040528015611c3b5781602001602082028038833980820191505090505b50905060008090505b6002811015611c89578481600281101515611c5b57fe5b60200201518282815181101515611c6e57fe5b90602001906020020181815250508080600101915050611c44565b506000611c9682846128ae565b1415611d35577f3f3cfdb26fb5f9f1786ab4f1a1f9cd4c0b5e726cbdfc26e495261731aad44e396040518080602001828103825260228152602001807f5472616e73616374696f6e207375636365737366756c6c79207665726966696581526020017f642e00000000000000000000000000000000000000000000000000000000000081525060400191505060405180910390a1600192505050611d3c565b6000925050505b949350505050565b6000806002600084815260200190815260200160002060009054906101000a900473ffffffffffffffffffffffffffffffffffffffff169050600073ffffffffffffffffffffffffffffffffffffffff168173ffffffffffffffffffffffffffffffffffffffff1614151515611db957600080fd5b80915050919050565b601660009054906101000a900473ffffffffffffffffffffffffffffffffffffffff1673ffffffffffffffffffffffffffffffffffffffff1663621e9ec0858585856040518563ffffffff167c01000000000000000000000000000000000000000000000000000000000281526004018085600260200280838360005b83811015611e5a578082015181840152602081019050611e3f565b505050509050018460026000925b81841015611eae5782846020020151600260200280838360005b83811015611e9d578082015181840152602081019050611e82565b505050509050019260010192611e68565b9250505083600260200280838360005b83811015611ed9578082015181840152602081019050611ebe565b5050505090500182600260200280838360005b83811015611f07578082015181840152602081019050611eec565b50505050905001945050505050602060405180830381600087803b158015611f2e57600080fd5b505af1158015611f42573d6000803e3d6000fd5b505050506040513d6020811015611f5857600080fd5b81019080805190602001909291905050501515611fdd576040517f08c379a00000000000000000000000000000000000000000000000000000000081526004018080602001828103825260128152602001807f496e636f727265637420736f6c7574696f6e000000000000000000000000000081525060200191505060405180910390fd5b611feb868686868686611655565b611ff58686611a11565b50505050505050565b60008073ffffffffffffffffffffffffffffffffffffffff168273ffffffffffffffffffffffffffffffffffffffff161415151561203b57600080fd5b612082600460008473ffffffffffffffffffffffffffffffffffffffff1673ffffffffffffffffffffffffffffffffffffffff1681526020019081526020016000206129eb565b9050919050565b612091612138565b151561209c57600080fd5b600060149054906101000a900460ff161515156120b857600080fd5b6001600060146101000a81548160ff0219169083151502179055507f62e78cea01bee320cd4e420270b5ea74000d11b0c9f74754ebdbfc544b05a25833604051808273ffffffffffffffffffffffffffffffffffffffff1673ffffffffffffffffffffffffffffffffffffffff16815260200191505060405180910390a1565b60008060009054906101000a900473ffffffffffffffffffffffffffffffffffffffff1673ffffffffffffffffffffffffffffffffffffffff163373ffffffffffffffffffffffffffffffffffffffff1614905090565b606060108054600181600116156101000203166002900480601f0160208091040260200160405190810160405280929190818152602001828054600181600116156101000203166002900480156122275780601f106121fc57610100808354040283529160200191612227565b820191906000526020600020905b81548152906001019060200180831161220a57829003601f168201915b5050505050905090565b3373ffffffffffffffffffffffffffffffffffffffff168273ffffffffffffffffffffffffffffffffffffffff161415151561226c57600080fd5b80600560003373ffffffffffffffffffffffffffffffffffffffff1673ffffffffffffffffffffffffffffffffffffffff16815260200190815260200160002060008473ffffffffffffffffffffffffffffffffffffffff1673ffffffffffffffffffffffffffffffffffffffff16815260200190815260200160002060006101000a81548160ff0219169083151502179055508173ffffffffffffffffffffffffffffffffffffffff163373ffffffffffffffffffffffffffffffffffffffff167f17307eab39ab6107e8899845ad3d59bd9653f200f220920489ca2b5937696c3183604051808215151515815260200191505060405180910390a35050565b60186020528060005260406000206000915090508060000154908060010160009054906101000a900473ffffffffffffffffffffffffffffffffffffffff16905082565b6123bc848484611571565b6123c8848484846129f9565b15156123d357600080fd5b50505050565b60606123e482612678565b15156123ef57600080fd5b601260008381526020019081526020016000208054600181600116156101000203166002900480601f0160208091040260200160405190810160405280929190818152602001828054600181600116156101000203166002900480156124965780601f1061246b57610100808354040283529160200191612496565b820191906000526020600020905b81548152906001019060200180831161247957829003601f168201915b50505050509050919050565b606060118054600181600116156101000203166002900480601f01602080910402602001604051908101604052809291908181526020018280546001816001161561010002031660029004801561253a5780601f1061250f5761010080835404028352916020019161253a565b820191906000526020600020905b81548152906001019060200180831161251d57829003601f168201915b5050505050905090565b60008060019050600073ffffffffffffffffffffffffffffffffffffffff166018600085815260200190815260200160002060010160009054906101000a900473ffffffffffffffffffffffffffffffffffffffff1673ffffffffffffffffffffffffffffffffffffffff161415156125bc57600090505b80915050919050565b6000600560008473ffffffffffffffffffffffffffffffffffffffff1673ffffffffffffffffffffffffffffffffffffffff16815260200190815260200160002060008373ffffffffffffffffffffffffffffffffffffffff1673ffffffffffffffffffffffffffffffffffffffff16815260200190815260200160002060009054906101000a900460ff16905092915050565b612661612138565b151561266c57600080fd5b61267581612c1c565b50565b6000806002600084815260200190815260200160002060009054906101000a900473ffffffffffffffffffffffffffffffffffffffff169050600073ffffffffffffffffffffffffffffffffffffffff168173ffffffffffffffffffffffffffffffffffffffff161415915050919050565b6000806126f683611d44565b90508073ffffffffffffffffffffffffffffffffffffffff168473ffffffffffffffffffffffffffffffffffffffff16148061276557508373ffffffffffffffffffffffffffffffffffffffff1661274d846113ce565b73ffffffffffffffffffffffffffffffffffffffff16145b80612776575061277581856125c5565b5b91505092915050565b61278a838383612d16565b6127948382612edd565b61279e8282613081565b505050565b6127ad8282613148565b6127b78282613081565b6127c081613292565b5050565b6127cd81612678565b15156127d857600080fd5b61288460118054600181600116156101000203166002900480601f0160208091040260200160405190810160405280929190818152602001828054600181600116156101000203166002900480156128715780601f1061284657610100808354040283529160200191612871565b820191906000526020600020905b81548152906001019060200180831161285457829003601f168201915b505050505061287f836132de565b613437565b6012600083815260200190815260200160002090805190602001906128aa929190614492565b5050565b60006128b8614512565b6128c061347e565b905080608001515160018551011415156128d957600080fd5b6128e161455b565b6040805190810160405280600081526020016000815250905060008090505b8551811015612960576129518261294c85608001516001850181518110151561292557fe5b90602001906020020151898581518110151561293d57fe5b906020019060200201516138d8565b613974565b91508080600101915050612900565b50612987818360800151600081518110151561297857fe5b90602001906020020151613974565b90506129cd8460000151856020015161299f84613a31565b85604001516129b18960400151613a31565b87606001516129c38960000151613a31565b8960200151613acd565b15156129de576001925050506129e5565b6000925050505b92915050565b600081600001549050919050565b6000612a1a8473ffffffffffffffffffffffffffffffffffffffff16613c51565b1515612a295760019050612c14565b60008473ffffffffffffffffffffffffffffffffffffffff1663150b7a02338887876040518563ffffffff167c0100000000000000000000000000000000000000000000000000000000028152600401808573ffffffffffffffffffffffffffffffffffffffff1673ffffffffffffffffffffffffffffffffffffffff1681526020018473ffffffffffffffffffffffffffffffffffffffff1673ffffffffffffffffffffffffffffffffffffffff16815260200183815260200180602001828103825283818151815260200191508051906020019080838360005b83811015612b20578082015181840152602081019050612b05565b50505050905090810190601f168015612b4d5780820380516001836020036101000a031916815260200191505b5095505050505050602060405180830381600087803b158015612b6f57600080fd5b505af1158015612b83573d6000803e3d6000fd5b505050506040513d6020811015612b9957600080fd5b8101908080519060200190929190505050905063150b7a027c0100000000000000000000000000000000000000000000000000000000027bffffffffffffffffffffffffffffffffffffffffffffffffffffffff1916817bffffffffffffffffffffffffffffffffffffffffffffffffffffffff1916149150505b949350505050565b600073ffffffffffffffffffffffffffffffffffffffff168173ffffffffffffffffffffffffffffffffffffffff1614151515612c5857600080fd5b8073ffffffffffffffffffffffffffffffffffffffff166000809054906101000a900473ffffffffffffffffffffffffffffffffffffffff1673ffffffffffffffffffffffffffffffffffffffff167f8be0079c531659141344cd1fd0a4f28419497f9722a3daafe3b4186f6b6457e060405160405180910390a3806000806101000a81548173ffffffffffffffffffffffffffffffffffffffff021916908373ffffffffffffffffffffffffffffffffffffffff16021790555050565b8273ffffffffffffffffffffffffffffffffffffffff16612d3682611d44565b73ffffffffffffffffffffffffffffffffffffffff16141515612d5857600080fd5b600073ffffffffffffffffffffffffffffffffffffffff168273ffffffffffffffffffffffffffffffffffffffff1614151515612d9457600080fd5b612d9d81613c64565b612de4600460008573ffffffffffffffffffffffffffffffffffffffff1673ffffffffffffffffffffffffffffffffffffffff168152602001908152602001600020613d24565b612e2b600460008473ffffffffffffffffffffffffffffffffffffffff1673ffffffffffffffffffffffffffffffffffffffff168152602001908152602001600020613d47565b816002600083815260200190815260200160002060006101000a81548173ffffffffffffffffffffffffffffffffffffffff021916908373ffffffffffffffffffffffffffffffffffffffff160217905550808273ffffffffffffffffffffffffffffffffffffffff168473ffffffffffffffffffffffffffffffffffffffff167fddf252ad1be2c89b69c2b068fc378daa952ba7f163c4a11628f55a4df523b3ef60405160405180910390a4505050565b6000612f356001600660008673ffffffffffffffffffffffffffffffffffffffff1673ffffffffffffffffffffffffffffffffffffffff16815260200190815260200160002080549050613d5d90919063ffffffff16565b90506000600760008481526020019081526020016000205490508181141515613028576000600660008673ffffffffffffffffffffffffffffffffffffffff1673ffffffffffffffffffffffffffffffffffffffff16815260200190815260200160002083815481101515612fa657fe5b9060005260206000200154905080600660008773ffffffffffffffffffffffffffffffffffffffff1673ffffffffffffffffffffffffffffffffffffffff1681526020019081526020016000208381548110151561300057fe5b9060005260206000200181905550816007600083815260200190815260200160002081905550505b600660008573ffffffffffffffffffffffffffffffffffffffff1673ffffffffffffffffffffffffffffffffffffffff16815260200190815260200160002080548091906001900361307a9190614575565b5050505050565b600660008373ffffffffffffffffffffffffffffffffffffffff1673ffffffffffffffffffffffffffffffffffffffff168152602001908152602001600020805490506007600083815260200190815260200160002081905550600660008373ffffffffffffffffffffffffffffffffffffffff1673ffffffffffffffffffffffffffffffffffffffff1681526020019081526020016000208190806001815401808255809150509060018203906000526020600020016000909192909190915055505050565b600073ffffffffffffffffffffffffffffffffffffffff168273ffffffffffffffffffffffffffffffffffffffff161415151561318457600080fd5b61318d81612678565b15151561319957600080fd5b816002600083815260200190815260200160002060006101000a81548173ffffffffffffffffffffffffffffffffffffffff021916908373ffffffffffffffffffffffffffffffffffffffff160217905550613232600460008473ffffffffffffffffffffffffffffffffffffffff1673ffffffffffffffffffffffffffffffffffffffff168152602001908152602001600020613d47565b808273ffffffffffffffffffffffffffffffffffffffff16600073ffffffffffffffffffffffffffffffffffffffff167fddf252ad1be2c89b69c2b068fc378daa952ba7f163c4a11628f55a4df523b3ef60405160405180910390a45050565b6008805490506009600083815260200190815260200160002081905550600881908060018154018082558091505090600182039060005260206000200160009091929091909150555050565b60606000821415613326576040805190810160405280600181526020017f30000000000000000000000000000000000000000000000000000000000000008152509050613432565b600082905060005b600082141515613354578080600101915050600a8281151561334c57fe5b04915061332e565b6060816040519080825280601f01601f1916602001820160405280156133895781602001600182028038833980820191505090505b50905060006001830390505b60008614151561342a57600a868115156133ab57fe5b066030017f0100000000000000000000000000000000000000000000000000000000000000028282806001900393508151811015156133e657fe5b9060200101907effffffffffffffffffffffffffffffffffffffffffffffffffffffffffffff1916908160001a905350600a8681151561342257fe5b049550613395565b819450505050505b919050565b60606134768383602060405190810160405280600081525060206040519081016040528060008152506020604051908101604052806000815250613d7f565b905092915050565b613486614512565b60408051908101604052807f13f53406058f52746505e092bd1e714045ccf39e47d36ee129136b2c7ef7983981526020017f208528dd56e7018b9128fb7e98f0af698804635eccfd91e104d7776f90c8aa0f8152508160000181905250604080519081016040528060408051908101604052807f07af5170a88240e85dd4e0fdb594743a81e76ed92df4f5aa2588f1d7c8273e6e81526020017f13db7f385f56fbf7812c53ae09f3b747c5bde2b4cc1c3a5774e32a8799052642815250815260200160408051908101604052807f2252e63dad32f7b11ceef673419cecfd6626abc259c5b82b081ca3407367996d81526020017f2114d50485c56484852204bd4c5911ec61368e73cb285195bd1c200d3405787f8152508152508160200181905250604080519081016040528060408051908101604052807f1c8f78927b70448a5c6fbbf3eba1218cd5a61ee120a761951def863cd52b043d81526020017f01c33faf03dde880ea6bf3793b47ca49305270394b5b2fbb8815521e89e10cb4815250815260200160408051908101604052807f054a3917ea3b4d5e677164427fab7476ad059f82db7df037ff9678d561435c9481526020017f27efcefee3e2a23a871e4eebd141f908943a0eb9e5ebf45e39b971629ca08e638152508152508160400181905250604080519081016040528060408051908101604052807f1e6e877b990fcd78671eea9b49e3c5665efe2b4261a9eea559fd72d8f3d188ae81526020017f19f623c476e99915b85aa1db9ec91770763db371970bf5b574f981e71866939b815250815260200160408051908101604052807f01d5e8921f3bb9d95452e37bd32bd2d83b0c3cac2bfa95b13ab627a9410329a781526020017f2fb4c41ad9b75086dc8d58983085c44901138c1032cd71b79ec1da9484a481018152508152508160600181905250600360405190808252806020026020018201604052801561376d57816020015b61375a6145a1565b8152602001906001900390816137525790505b50816080018190525060408051908101604052807f185484197e8084a6ae844a6609c064271363e5d21d1ec1d52063daf58404513781526020017f204a5fc3e50a2d973895dfcb28f0c0da009f03a5a13ff7f54d593ddec60b14b8815250816080015160008151811015156137de57fe5b9060200190602002018190525060408051908101604052807f2f032c15074e640bf7a1ba49041a46ed70a3c8f5bdeefc47ce16bcaf840cd40881526020017f2ff9f486537155833ebf36e7b22c879c186b1389cf7f80eb650de1075cf8fcdc8152508160800151600181518110151561385357fe5b9060200190602002018190525060408051908101604052807f0572346c3f8966472c49262803ffa3320bb9077bc971f8ff3c8e6c0cef2acaa081526020017f0599e8d2f54cef6e2e3ddb6bb9112dd2cbf4f2a6991ff91378b37fda1a00a29c815250816080015160028151811015156138c857fe5b9060200190602002018190525090565b6138e061455b565b6138e86145bb565b83600001518160006003811015156138fc57fe5b602002018181525050836020015181600160038110151561391957fe5b6020020181815250508281600260038110151561393257fe5b6020020181815250506000606083608084600060076107d05a03f19050806000811461395d5761395f565bfe5b5080151561396c57600080fd5b505092915050565b61397c61455b565b6139846145de565b836000015181600060048110151561399857fe5b60200201818152505083602001518160016004811015156139b557fe5b60200201818152505082600001518160026004811015156139d257fe5b60200201818152505082602001518160036004811015156139ef57fe5b602002018181525050600060608360c084600060066107d05a03f190508060008114613a1a57613a1c565bfe5b50801515613a2957600080fd5b505092915050565b613a3961455b565b60007f30644e72e131a029b85045b68181585d97816a916871ca8d3c208c16d87cfd47905060008360000151148015613a76575060008360200151145b15613a9a576040805190810160405280600081526020016000815250915050613ac8565b604080519081016040528084600001518152602001828560200151811515613abe57fe5b0683038152509150505b919050565b600060606004604051908082528060200260200182016040528015613b0c57816020015b613af96145a1565b815260200190600190039081613af15790505b50905060606004604051908082528060200260200182016040528015613b4c57816020015b613b39614601565b815260200190600190039081613b315790505b5090508a826000815181101515613b5f57fe5b9060200190602002018190525088826001815181101515613b7c57fe5b9060200190602002018190525086826002815181101515613b9957fe5b9060200190602002018190525084826003815181101515613bb657fe5b9060200190602002018190525089816000815181101515613bd357fe5b9060200190602002018190525087816001815181101515613bf057fe5b9060200190602002018190525085816002815181101515613c0d57fe5b9060200190602002018190525083816003815181101515613c2a57fe5b90602001906020020181905250613c41828261419a565b9250505098975050505050505050565b600080823b905060008111915050919050565b600073ffffffffffffffffffffffffffffffffffffffff166003600083815260200190815260200160002060009054906101000a900473ffffffffffffffffffffffffffffffffffffffff1673ffffffffffffffffffffffffffffffffffffffff16141515613d215760006003600083815260200190815260200160002060006101000a81548173ffffffffffffffffffffffffffffffffffffffff021916908373ffffffffffffffffffffffffffffffffffffffff1602179055505b50565b613d3c60018260000154613d5d90919063ffffffff16565b816000018190555050565b6001816000016000828254019250508190555050565b6000828211151515613d6e57600080fd5b600082840390508091505092915050565b6060808690506060869050606086905060608690506060869050606081518351855187518951010101016040519080825280601f01601f191660200182016040528015613ddb5781602001600182028038833980820191505090505b509050606081905060008090506000809050600090505b8851811015613ea5578881815181101515613e0957fe5b9060200101517f010000000000000000000000000000000000000000000000000000000000000090047f0100000000000000000000000000000000000000000000000000000000000000028383806001019450815181101515613e6857fe5b9060200101907effffffffffffffffffffffffffffffffffffffffffffffffffffffffffffff1916908160001a9053508080600101915050613df2565b600090505b8751811015613f5d578781815181101515613ec157fe5b9060200101517f010000000000000000000000000000000000000000000000000000000000000090047f0100000000000000000000000000000000000000000000000000000000000000028383806001019450815181101515613f2057fe5b9060200101907effffffffffffffffffffffffffffffffffffffffffffffffffffffffffffff1916908160001a9053508080600101915050613eaa565b600090505b8651811015614015578681815181101515613f7957fe5b9060200101517f010000000000000000000000000000000000000000000000000000000000000090047f0100000000000000000000000000000000000000000000000000000000000000028383806001019450815181101515613fd857fe5b9060200101907effffffffffffffffffffffffffffffffffffffffffffffffffffffffffffff1916908160001a9053508080600101915050613f62565b600090505b85518110156140cd57858181518110151561403157fe5b9060200101517f010000000000000000000000000000000000000000000000000000000000000090047f010000000000000000000000000000000000000000000000000000000000000002838380600101945081518110151561409057fe5b9060200101907effffffffffffffffffffffffffffffffffffffffffffffffffffffffffffff1916908160001a905350808060010191505061401a565b600090505b84518110156141855784818151811015156140e957fe5b9060200101517f010000000000000000000000000000000000000000000000000000000000000090047f010000000000000000000000000000000000000000000000000000000000000002838380600101945081518110151561414857fe5b9060200101907effffffffffffffffffffffffffffffffffffffffffffffffffffffffffffff1916908160001a90535080806001019150506140d2565b82995050505050505050505095945050505050565b6000815183511415156141ac57600080fd5b60008351905060006006820290506060816040519080825280602002602001820160405280156141eb5781602001602082028038833980820191505090505b50905060008090505b838110156143c957868181518110151561420a57fe5b9060200190602002015160000151826000600684020181518110151561422c57fe5b9060200190602002018181525050868181518110151561424857fe5b9060200190602002015160200151826001600684020181518110151561426a57fe5b9060200190602002018181525050858181518110151561428657fe5b906020019060200201516000015160006002811015156142a257fe5b602002015182600260068402018151811015156142bb57fe5b906020019060200201818152505085818151811015156142d757fe5b906020019060200201516000015160016002811015156142f357fe5b6020020151826003600684020181518110151561430c57fe5b9060200190602002018181525050858181518110151561432857fe5b9060200190602002015160200151600060028110151561434457fe5b6020020151826004600684020181518110151561435d57fe5b9060200190602002018181525050858181518110151561437957fe5b9060200190602002015160200151600160028110151561439557fe5b602002015182600560068402018151811015156143ae57fe5b906020019060200201818152505080806001019150506141f4565b506143d2614628565b60006020826020860260208601600060086107d05a03f1905080600081146143f9576143fb565bfe5b5080151561440857600080fd5b600082600060018110151561441957fe5b602002015114159550505050505092915050565b604080519081016040528060008152602001600073ffffffffffffffffffffffffffffffffffffffff1681525090565b610100604051908101604052806144726145a1565b815260200161447f614601565b815260200161448c6145a1565b81525090565b828054600181600116156101000203166002900490600052602060002090601f016020900481019282601f106144d357805160ff1916838001178555614501565b82800160010185558215614501579182015b828111156145005782518255916020019190600101906144e5565b5b50905061450e919061464b565b5090565b6101e0604051908101604052806145276145a1565b8152602001614534614601565b8152602001614541614601565b815260200161454e614601565b8152602001606081525090565b604080519081016040528060008152602001600081525090565b81548183558181111561459c5781836000526020600020918201910161459b919061464b565b5b505050565b604080519081016040528060008152602001600081525090565b606060405190810160405280600390602082028038833980820191505090505090565b608060405190810160405280600490602082028038833980820191505090505090565b608060405190810160405280614615614670565b8152602001614622614670565b81525090565b602060405190810160405280600190602082028038833980820191505090505090565b61466d91905b80821115614669576000816000905550600101614651565b5090565b90565b604080519081016040528060029060208202803883398082019150509050509056fea165627a7a723058200131a591718ca11db4e73ea3f79e89a241bb2e939829341d848d4269e96da0130029",
  "source": "  \r\npragma solidity >=0.4.21 <0.6.0;\r\n\r\n import './Verifier.sol';\r\n import './ERC721Mintable.sol';\r\n\r\n \r\n\r\n\r\n\r\n// TODO define another contract named SolnSquareVerifier that inherits ERC721Mintable\r\n\r\ncontract SolnSquareVerifier is  ERC721Mintable, Verifier {\r\n\r\n// TODO define a contract call to the zokrates generated solidity contract <Verifier> or <renamedVerifier>\r\nVerifier verifier;\r\n // TODO define a solutions struct that can hold index, address, and image\r\nstruct Solution{\r\n   uint256 index;\r\n   address solutionsAddress;\r\n  }\r\nconstructor(address _verifierContract) ERC721Mintable()  public{\r\nverifier = Verifier(_verifierContract);\r\n}\r\n// TODO define an array of the above struct\r\n  Solution[] private solutions;   \r\n  \r\n  // TODO define a mapping to store unique solutions submitted\r\n  mapping(bytes32 => Solution) public solutionsSubmitted;\r\n\r\n// TODO Create an event to emit when a solution is added\r\n  event solutionAdded(address _solution);\r\n\r\n\r\n  // TODO Create a function to add the solutions to the array and emit the event\r\n    function addSolution(address _solutionAddress, uint256 _id, uint[2] memory A, uint[2][2] memory B,  uint[2] memory C, uint[2] memory input) public {\r\n     \tbytes32 key = keccak256(abi.encodePacked(A, B, C, input));\r\n       \trequire(isSolutionUnique(key), \"Solution already exsits.\");\r\n     Solution memory sol = Solution({index: _id, solutionsAddress: _solutionAddress});\r\n        solutionsSubmitted[key] = sol;\r\n      solutions.push(sol);\r\n      emit  solutionAdded(_solutionAddress);\r\n    }\r\n\r\n\r\n function isSolutionUnique(bytes32 key) public view returns (bool){\r\n    \tbool isUnique = true;\r\n    \tif (solutionsSubmitted[key].solutionsAddress != address(0)){\r\n    \t\tisUnique = false;\r\n    \t}\r\n\t\treturn isUnique;\t\r\n    }\r\n  // TODO Create a function to mint new NFT only after the solution has been verified\r\n  //  - make sure the solution is unique (has not been used before)\r\n  //  - make sure you handle metadata as well as tokenSuplly\r\n  function mintNewNFT(address _to,uint256 tokenSuplly, uint[2] memory A, uint[2][2] memory B, uint[2] memory C, uint[2] memory input) public{\r\n             \t\trequire(verifier.verifyTx(A,  B,  C,  input), \"Incorrect solution\"); \r\n                 \taddSolution(_to, tokenSuplly, A,  B, C, input);            \r\n              super.mint(_to,tokenSuplly);\r\n  }\r\n}",
  "sourcePath": "D:/repo/blockchain_real_state_marketplace/contracts/SolnSquareVerifier.sol",
  "compiler": {
    "name": "solc",
    "version": "0.5.0+commit.1d4f565a.Emscripten.clang"
  },
  "schemaVersion": "3.0.8",
  "updatedAt": "2019-05-02T01:46:39.909Z",
  "devdoc": {
    "methods": {
      "isApprovedForAll(address,address)": {
        "details": "Tells whether an operator is approved by a given owner\r",
        "params": {
          "operator": "operator address which you want to query the approval of\r",
          "owner": "owner address which you want to query the approval of\r"
        },
        "return": "bool whether the given operator is approved by the given owner\r"
      },
      "setApprovalForAll(address,bool)": {
        "details": "Sets or unsets the approval of a given operator\r An operator is allowed to transfer all tokens of the sender on their behalf\r",
        "params": {
          "approved": "representing the status of the approval to be set\r",
          "to": "operator address to set the approval\r"
        }
      },
      "supportsInterface(bytes4)": {
        "details": "implement supportsInterface(bytes4) using a lookup table\r"
      },
      "tokenByIndex(uint256)": {
        "details": "Gets the token ID at a given index of all the tokens in this contract\r Reverts if the index is greater or equal to the total number of tokens\r",
        "params": {
          "index": "uint256 representing the index to be accessed of the tokens list\r"
        },
        "return": "uint256 token ID at the given index of the tokens list\r"
      },
      "tokenOfOwnerByIndex(address,uint256)": {
        "details": "Gets the token ID at a given index of the tokens list of the requested owner\r",
        "params": {
          "index": "uint256 representing the index to be accessed of the requested tokens list\r",
          "owner": "address owning the tokens list to be accessed\r"
        },
        "return": "uint256 token ID at the given index of the tokens list owned by the requested address\r"
      },
      "totalSupply()": {
        "details": "Gets the total amount of tokens stored by the contract\r",
        "return": "uint256 representing the total amount of tokens\r"
      },
      "onERC721Received(address,address,uint256,bytes)": {
        "details": "The ERC721 smart contract calls this function on the recipient after a `safeTransfer`. This function MUST return the function selector, otherwise the caller will revert the transaction. The selector to be returned can be obtained as `this.onERC721Received.selector`. This function MAY throw to revert and reject the transfer. Note: the ERC721 contract address is always the message sender.",
        "params": {
          "data": "Additional data with no specified format",
          "from": "The address which previously owned the token",
          "operator": "The address which called `safeTransferFrom` function",
          "tokenId": "The NFT identifier which is being transferred"
        },
        "return": "bytes4 `bytes4(keccak256(\"onERC721Received(address,address,uint256,bytes)\"))`"
      },
      "owner()": {
        "return": "the address of the owner.\r"
      },
      "transferOwnership(address)": {
        "details": "Allows the current owner to transfer control of the contract to a newOwner.\r",
        "params": {
          "newOwner": "The address to transfer ownership to.\r"
        }
      }
    }
  },
  "userdoc": {
    "methods": {
      "isOwner()": {
        "notice": "Check if the calling address is the owner of the contract"
      },
      "onERC721Received(address,address,uint256,bytes)": {
        "notice": "Handle the receipt of an NFT"
      }
    }
  }
}